:100000000C9480000C94383A0C94383A0C94A13239
:100010000C94383A0C94383A0C94383A0C94383A98
:100020000C94383A0C94383A0C94383A0C94383A88
:100030000C94383A0C94383A0C94383A0C94383A78
:100040000C94383A0C94383A0C94383A0C94383A68
:100050000C94383A0C94383A0C94383A0C94383A58
:100060000C94383A0C94383A5034493442343B3486
:1000700034342D34273421341C34153407340034FF
:10008000F933573457345734573457345734573477
:100090005734573457345734573457345734573408
:1000A00057345734573457345734573457345734F8
:1000B00057345734573457345734573457345734E8
:1000C00057345734573457345734573457345734D8
:1000D00057345734573457345734573457345734C8
:1000E00057345734EB33F2330100012B80012B01DD
:1000F0002F007474012F01338001330135007478AF
:1001000011241FBECFEFD8E0DEBFCDBFE8EEF0E098
:1001100041E017C0B591A59135912591059107FD55
:100120000CC095918591EF01F92FE82F05900D9264
:10013000A217B307D9F7FE0104C01D92A217B30797
:10014000E1F7E030F40731F70E9458370C94A8002B
:04015000F894FFCF51
:10015400EF92FF920F931F93CF93DF938091090146
:10016400813039F480911601813011F4289A01C04C
:10017400289880911401909115018833910588F095
:10018400893E934010F40E94563980911401909155
:100194001501C7970E94A8390E94CA390E94E939FB
:1001A4000CC00E94CA390E94E9390E9456398091D4
:1001B4001401909115010E94A8390E94D937C09169
:1001C4001801D09119012A960E9435392197E1F737
:1001D4000E94CA390E9435390E94CA39E090100140
:1001E400F0901101D4E118E2CAE20AE10E94353923
:1001F400D8B918B9D8B918B9D8B918B9D8B918B973
:10020400D8B918B9D8B918B9D8B918B9D8B918B962
:10021400D8B918B9D8B918B9D8B918B9D8B918B952
:10022400D8B918B9D8B918B9D8B918B9D8B918B942
:10023400D8B918B9D8B918B9D8B918B9D8B918B932
:10024400D8B918B9D8B918B9D8B918B9D8B918B922
:10025400D8B918B9D8B918B9D8B918B9D8B918B912
:10026400D8B918B9D8B918B9D8B918B9D8B918B902
:10027400D8B918B9D8B918B9D8B918B9D8B918B9F2
:10028400D8B918B9D8B918B9D8B918B9D8B918B9E2
:10029400D8B918B9D8B918B9D8B918B9D8B918B9D2
:1002A400D8B918B9D8B918B9D8B918B9D8B918B9C2
:1002B400D8B9C8B9D8B9C8B9D8B9C8B9D8B9C8B9F2
:1002C40080910701882311F0802F01C08D2FD8B9A8
:1002D400C8B988B9C8B988B9C8B988B9C8B9D8B9C2
:1002E400C8B988B9C8B988B9C8B988B9C8B9D8B9B2
:1002F400C8B988B9C8B988B9C8B988B9C8B9D8B9A2
:10030400C8B988B9C8B988B9C8B988B9C8B9D8B991
:10031400C8B988B9C8B988B9C8B988B9C8B9D8B981
:10032400C8B988B9C8B988B9C8B988B9C8B9D8B971
:10033400C8B988B9C8B988B9C8B988B9C8B9D8B961
:10034400C8B988B9C8B988B9C8B988B9C8B9D8B951
:10035400C8B988B9C8B988B9C8B988B9C8B9D8B941
:10036400C8B988B9C8B988B9C8B988B9C8B9D8B931
:10037400C8B988B9C8B988B9C8B988B9C8B9D8B921
:10038400C8B988B9C8B988B9C8B988B9C8B9D8B911
:10039400C8B988B9C8B988B9C8B988B9C8B9D8B901
:1003A400C8B988B9C8B988B9C8B988B9C8B9D8B9F1
:1003B400C8B988B9C8B988B9C8B988B9C8B9D8B9E1
:1003C400C8B988B9C8B988B9C8B988B9C8B9D8B9D1
:1003D400C8B988B9C8B988B9C8B988B9C8B9D8B9C1
:1003E400C8B988B9C8B988B9C8B988B9C8B9D8B9B1
:1003F400C8B988B9C8B988B9C8B988B9C8B9D8B9A1
:10040400C8B988B9C8B988B9C8B988B9C8B9D8B990
:10041400C8B988B9C8B988B9C8B988B9C8B9D8B980
:10042400C8B988B9C8B988B9C8B988B9C8B9D8B970
:10043400C8B988B9C8B988B9C8B988B9C8B9D8B960
:10044400C8B988B9C8B988B9C8B988B9C8B9D8B950
:10045400C8B988B9C8B988B9C8B988B9C8B9D8B940
:10046400C8B988B9C8B988B9C8B988B9C8B9D8B930
:10047400C8B988B9C8B988B9C8B988B9C8B9D8B920
:10048400C8B988B9C8B988B9C8B988B9C8B9D8B910
:10049400C8B988B9C8B988B9C8B988B9C8B9D8B900
:1004A400C8B988B9C8B988B9C8B988B9C8B9D8B9F0
:1004B400C8B988B9C8B988B9C8B988B9C8B9D8B9E0
:1004C400C8B988B9C8B988B9C8B988B9C8B9D8B9D0
:1004D400C8B988B9C8B988B9C8B988B9C8B9D8B9C0
:1004E400C8B988B9C8B988B9C8B988B9C8B9D8B9B0
:1004F400C8B988B9C8B988B9C8B988B9C8B9D8B9A0
:10050400C8B988B9C8B988B9C8B988B9C8B9D8B98F
:10051400C8B988B9C8B988B9C8B988B9C8B9D8B97F
:10052400C8B988B9C8B988B9C8B988B9C8B9D8B96F
:10053400C8B988B9C8B988B9C8B988B9C8B9D8B95F
:10054400C8B988B9C8B988B9C8B988B9C8B9D8B94F
:10055400C8B988B9C8B988B9C8B988B9C8B9D8B93F
:10056400C8B988B9C8B988B9C8B988B9C8B9D8B92F
:10057400C8B988B9C8B988B9C8B988B9C8B9D8B91F
:10058400C8B988B9C8B988B9C8B988B9C8B9D8B90F
:10059400C8B988B9C8B988B9C8B988B9C8B9D8B9FF
:1005A400C8B988B9C8B988B9C8B988B9C8B9D8B9EF
:1005B400C8B988B9C8B988B9C8B988B9C8B9D8B9DF
:1005C400C8B988B9C8B988B9C8B988B9C8B9D8B9CF
:1005D400C8B988B9C8B988B9C8B988B9C8B9D8B9BF
:1005E400C8B988B9C8B988B9C8B988B9C8B9D8B9AF
:1005F400C8B988B9C8B988B9C8B988B9C8B9D8B99F
:10060400C8B988B9C8B988B9C8B988B9C8B9D8B98E
:10061400C8B988B9C8B988B9C8B988B9C8B9D8B97E
:10062400C8B988B9C8B988B9C8B988B9C8B9D8B96E
:10063400C8B988B9C8B988B9C8B988B9C8B9D8B95E
:10064400C8B988B9C8B988B9C8B988B9C8B9D8B94E
:10065400C8B988B9C8B988B9C8B988B9C8B9D8B93E
:10066400C8B988B9C8B988B9C8B988B9C8B9D8B92E
:10067400C8B988B9C8B988B9C8B988B9C8B9D8B91E
:10068400C8B988B9C8B988B9C8B988B9C8B9D8B90E
:10069400C8B988B9C8B988B9C8B988B9C8B9D8B9FE
:1006A400C8B988B9C8B988B9C8B988B9C8B9D8B9EE
:1006B400C8B988B9C8B988B9C8B988B9C8B9D8B9DE
:1006C400C8B988B9C8B988B9C8B988B9C8B9D8B9CE
:1006D400C8B988B9C8B988B9C8B988B9C8B9D8B9BE
:1006E400C8B988B9C8B988B9C8B988B9C8B9D8B9AE
:1006F400C8B988B9C8B988B9C8B988B9C8B9D8B99E
:10070400C8B988B9C8B988B9C8B988B9C8B9D8B98D
:10071400C8B988B9C8B988B9C8B988B9C8B9D8B97D
:10072400C8B988B9C8B988B9C8B988B9C8B9D8B96D
:10073400C8B988B9C8B988B9C8B988B9C8B9D8B95D
:10074400C8B988B9C8B988B9C8B988B9C8B9D8B94D
:10075400C8B988B9C8B988B9C8B988B9C8B9D8B93D
:10076400C8B988B9C8B988B9C8B988B9C8B9D8B92D
:10077400C8B988B9C8B988B9C8B988B9C8B9D8B91D
:10078400C8B988B9C8B988B9C8B988B9C8B9D8B90D
:10079400C8B988B9C8B988B9C8B988B9C8B9D8B9FD
:1007A400C8B988B9C8B988B9C8B988B9C8B9D8B9ED
:1007B400C8B988B9C8B988B9C8B988B9C8B9D8B9DD
:1007C400C8B988B9C8B988B9C8B988B9C8B9D8B9CD
:1007D400C8B988B9C8B988B9C8B988B9C8B9D8B9BD
:1007E400C8B988B9C8B988B9C8B988B9C8B9D8B9AD
:1007F400C8B988B9C8B988B9C8B988B9C8B9D8B99D
:10080400C8B988B9C8B988B9C8B988B9C8B9D8B98C
:10081400C8B988B9C8B988B9C8B988B9C8B9D8B97C
:10082400C8B988B9C8B988B9C8B988B9C8B9D8B96C
:10083400C8B988B9C8B988B9C8B988B9C8B9D8B95C
:10084400C8B988B9C8B988B9C8B988B9C8B9D8B94C
:10085400C8B988B9C8B988B9C8B988B9C8B9D8B93C
:10086400C8B988B9C8B988B9C8B988B9C8B9D8B92C
:10087400C8B988B9C8B988B9C8B988B9C8B9D8B91C
:10088400C8B988B9C8B988B9C8B988B9C8B9D8B90C
:10089400C8B988B9C8B988B9C8B988B9C8B9D8B9FC
:1008A400C8B988B9C8B988B9C8B988B9C8B9D8B9EC
:1008B400C8B988B9C8B988B9C8B988B9C8B9D8B9DC
:1008C400C8B988B9C8B988B9C8B988B9C8B9D8B9CC
:1008D400C8B988B9C8B988B9C8B988B9C8B9D8B9BC
:1008E400C8B988B9C8B988B9C8B988B9C8B9D8B9AC
:1008F400C8B988B9C8B988B9C8B988B9C8B9D8B99C
:10090400C8B988B9C8B988B9C8B988B9C8B9D8B98B
:10091400C8B988B9C8B988B9C8B988B9C8B9D8B97B
:10092400C8B988B9C8B988B9C8B988B9C8B9D8B96B
:10093400C8B988B9C8B988B9C8B988B9C8B9D8B95B
:10094400C8B988B9C8B988B9C8B988B9C8B9D8B94B
:10095400C8B988B9C8B988B9C8B988B9C8B9D8B93B
:10096400C8B988B9C8B988B9C8B988B9C8B9D8B92B
:10097400C8B988B9C8B988B9C8B988B9C8B9D8B91B
:10098400C8B988B9C8B988B9C8B988B9C8B9D8B90B
:10099400C8B988B9C8B988B9C8B988B9C8B9D8B9FB
:1009A400C8B988B9C8B988B9C8B988B9C8B9D8B9EB
:1009B400C8B988B9C8B988B9C8B988B9C8B9D8B9DB
:1009C400C8B988B9C8B988B9C8B988B9C8B9D8B9CB
:1009D400C8B988B9C8B988B9C8B988B9C8B9D8B9BB
:1009E400C8B988B9C8B988B9C8B988B9C8B9D8B9AB
:1009F400C8B988B9C8B988B9C8B988B9C8B9D8B99B
:100A0400C8B988B9C8B988B9C8B988B9C8B9D8B98A
:100A1400C8B988B9C8B988B9C8B988B9C8B9D8B97A
:100A2400C8B988B9C8B988B9C8B988B9C8B9D8B96A
:100A3400C8B988B9C8B988B9C8B988B9C8B9D8B95A
:100A4400C8B988B9C8B988B9C8B988B9C8B9D8B94A
:100A5400C8B988B9C8B988B9C8B988B9C8B9D8B93A
:100A6400C8B988B9C8B988B9C8B988B9C8B9D8B92A
:100A7400C8B988B9C8B988B9C8B988B9C8B9D8B91A
:100A8400C8B988B9C8B988B9C8B988B9C8B9D8B90A
:100A9400C8B988B9C8B988B9C8B988B9C8B9D8B9FA
:100AA400C8B988B9C8B988B9C8B988B9C8B9D8B9EA
:100AB400C8B988B9C8B988B9C8B988B9C8B9D8B9DA
:100AC400C8B988B9C8B988B9C8B988B9C8B9D8B9CA
:100AD400C8B988B9C8B988B9C8B988B9C8B9D8B9BA
:100AE400C8B988B9C8B988B9C8B988B9C8B9D8B9AA
:100AF400C8B988B9C8B988B9C8B988B9C8B9D8B99A
:100B0400C8B988B9C8B988B9C8B988B9C8B9D8B989
:100B1400C8B988B9C8B988B9C8B988B9C8B9D8B979
:100B2400C8B988B9C8B988B9C8B988B9C8B9D8B969
:100B3400C8B988B9C8B988B9C8B988B9C8B9D8B959
:100B4400C8B988B9C8B988B9C8B988B9C8B9D8B949
:100B5400C8B988B9C8B988B9C8B988B9C8B9D8B939
:100B6400C8B988B9C8B988B9C8B988B9C8B9D8B929
:100B7400C8B988B9C8B988B9C8B988B9C8B9D8B919
:100B8400C8B988B9C8B988B9C8B988B9C8B9D8B909
:100B9400C8B988B9C8B988B9C8B988B9C8B9D8B9F9
:100BA400C8B988B9C8B988B9C8B988B9C8B9D8B9E9
:100BB400C8B988B9C8B988B9C8B988B9C8B9D8B9D9
:100BC400C8B988B9C8B988B9C8B988B9C8B9D8B9C9
:100BD400C8B988B9C8B988B9C8B988B9C8B9D8B9B9
:100BE400C8B988B9C8B988B9C8B988B9C8B9D8B9A9
:100BF400C8B988B9C8B988B9C8B988B9C8B9D8B999
:100C0400C8B988B9C8B988B9C8B988B9C8B9D8B988
:100C1400C8B988B9C8B988B9C8B988B9C8B9D8B978
:100C2400C8B988B9C8B988B9C8B988B9C8B9D8B968
:100C3400C8B988B9C8B988B9C8B988B9C8B9D8B958
:100C4400C8B988B9C8B988B9C8B988B9C8B9D8B948
:100C5400C8B988B9C8B988B9C8B988B9C8B9D8B938
:100C6400C8B988B9C8B988B9C8B988B9C8B9D8B928
:100C7400C8B988B9C8B988B9C8B988B9C8B9D8B918
:100C8400C8B988B9C8B988B9C8B988B9C8B9D8B908
:100C9400C8B988B9C8B988B9C8B988B9C8B9D8B9F8
:100CA400C8B988B9C8B988B9C8B988B9C8B9D8B9E8
:100CB400C8B988B9C8B988B9C8B988B9C8B9D8B9D8
:100CC400C8B988B9C8B988B9C8B988B9C8B9D8B9C8
:100CD400C8B988B9C8B988B9C8B988B9C8B9D8B9B8
:100CE400C8B988B9C8B988B9C8B988B9C8B9D8B9A8
:100CF400C8B988B9C8B988B9C8B988B9C8B9D8B998
:100D0400C8B988B9C8B988B9C8B988B9C8B9D8B987
:100D1400C8B988B9C8B988B9C8B988B9C8B9D8B977
:100D2400C8B988B9C8B988B9C8B988B9C8B9D8B967
:100D3400C8B988B9C8B988B9C8B988B9C8B9D8B957
:100D4400C8B988B9C8B988B9C8B988B9C8B9D8B947
:100D5400C8B988B9C8B988B9C8B988B9C8B9D8B937
:100D6400C8B988B9C8B988B9C8B988B9C8B9D8B927
:100D7400C8B988B9C8B988B9C8B988B9C8B9D8B917
:100D8400C8B988B9C8B988B9C8B988B9C8B9D8B907
:100D9400C8B988B9C8B988B9C8B988B9C8B9D8B9F7
:100DA400C8B988B9C8B988B9C8B988B9C8B9D8B9E7
:100DB400C8B988B9C8B988B9C8B988B9C8B9D8B9D7
:100DC400C8B988B9C8B988B9C8B988B9C8B9D8B9C7
:100DD400C8B988B9C8B988B9C8B988B9C8B9D8B9B7
:100DE400C8B988B9C8B988B9C8B988B9C8B9D8B9A7
:100DF400C8B988B9C8B988B9C8B988B9C8B9D8B997
:100E0400C8B988B9C8B988B9C8B988B9C8B9D8B986
:100E1400C8B988B9C8B988B9C8B988B9C8B9D8B976
:100E2400C8B988B9C8B988B9C8B988B9C8B9D8B966
:100E3400C8B988B9C8B988B9C8B988B9C8B9D8B956
:100E4400C8B988B9C8B988B9C8B988B9C8B9D8B946
:100E5400C8B988B9C8B988B9C8B988B9C8B9D8B936
:100E6400C8B988B9C8B988B9C8B988B9C8B9D8B926
:100E7400C8B988B9C8B988B9C8B988B9C8B9D8B916
:100E8400C8B988B9C8B988B9C8B988B9C8B9D8B906
:100E9400C8B988B9C8B988B9C8B988B9C8B9D8B9F6
:100EA400C8B988B9C8B988B9C8B988B9C8B9D8B9E6
:100EB400C8B988B9C8B988B9C8B988B9C8B9D8B9D6
:100EC400C8B988B9C8B988B9C8B988B9C8B9D8B9C6
:100ED400C8B988B9C8B988B9C8B988B9C8B9D8B9B6
:100EE400C8B988B9C8B988B9C8B988B9C8B9D8B9A6
:100EF400C8B988B9C8B988B9C8B988B9C8B9D8B996
:100F0400C8B988B9C8B988B9C8B988B9C8B9D8B985
:100F1400C8B988B9C8B988B9C8B988B9C8B9D8B975
:100F2400C8B988B9C8B988B9C8B988B9C8B9D8B965
:100F3400C8B988B9C8B988B9C8B988B9C8B9D8B955
:100F4400C8B988B9C8B988B9C8B988B9C8B9D8B945
:100F5400C8B988B9C8B988B9C8B988B9C8B9D8B935
:100F6400C8B988B9C8B988B9C8B988B9C8B9D8B925
:100F7400C8B988B9C8B988B9C8B988B9C8B9D8B915
:100F8400C8B988B9C8B988B9C8B988B9C8B9D8B905
:100F9400C8B988B9C8B988B9C8B988B9C8B9D8B9F5
:100FA400C8B988B9C8B988B9C8B988B9C8B9D8B9E5
:100FB400C8B988B9C8B988B9C8B988B9C8B9D8B9D5
:100FC400C8B988B9C8B988B9C8B988B9C8B9D8B9C5
:100FD400C8B988B9C8B988B9C8B988B9C8B9D8B9B5
:100FE400C8B988B9C8B988B9C8B988B9C8B9D8B9A5
:100FF400C8B988B9C8B988B9C8B988B9C8B9D8B995
:10100400C8B988B9C8B988B9C8B988B9C8B9D8B984
:10101400C8B988B9C8B988B9C8B988B9C8B9D8B974
:10102400C8B988B9C8B988B9C8B988B9C8B9D8B964
:10103400C8B988B9C8B988B9C8B988B9C8B9D8B954
:10104400C8B988B9C8B988B9C8B988B9C8B9D8B944
:10105400C8B988B9C8B988B9C8B988B9C8B9D8B934
:10106400C8B988B9C8B988B9C8B988B9C8B9D8B924
:10107400C8B988B9C8B988B9C8B988B9C8B9D8B914
:10108400C8B988B9C8B988B9C8B988B9C8B9D8B904
:10109400C8B988B9C8B988B9C8B988B9C8B9D8B9F4
:1010A400C8B988B9C8B988B9C8B988B9C8B9D8B9E4
:1010B400C8B988B9C8B988B9C8B988B9C8B9D8B9D4
:1010C400C8B988B9C8B988B9C8B988B9C8B9D8B9C4
:1010D400C8B988B9C8B988B9C8B988B9C8B9D8B9B4
:1010E400C8B988B9C8B988B9C8B988B9C8B9D8B9A4
:1010F400C8B988B9C8B988B9C8B988B9C8B9D8B994
:10110400C8B988B9C8B988B9C8B988B9C8B9D8B983
:10111400C8B988B9C8B988B9C8B988B9C8B9D8B973
:10112400C8B988B9C8B988B9C8B988B9C8B9D8B963
:10113400C8B988B9C8B988B9C8B988B9C8B9D8B953
:10114400C8B988B9C8B988B9C8B988B9C8B9D8B943
:10115400C8B988B9C8B988B9C8B988B9C8B9D8B933
:10116400C8B988B9C8B988B9C8B988B9C8B9D8B923
:10117400C8B988B9C8B988B9C8B988B9C8B9D8B913
:10118400C8B988B9C8B988B9C8B988B9C8B9D8B903
:10119400C8B988B9C8B988B9C8B988B9C8B9D8B9F3
:1011A400C8B988B9C8B988B9C8B988B9C8B9D8B9E3
:1011B400C8B988B9C8B988B9C8B988B9C8B9D8B9D3
:1011C400C8B988B9C8B988B9C8B988B9C8B9D8B9C3
:1011D400C8B988B9C8B988B9C8B988B9C8B9D8B9B3
:1011E400C8B988B9C8B988B9C8B988B9C8B9D8B9A3
:1011F400C8B988B9C8B988B9C8B988B9C8B9D8B993
:10120400C8B988B9C8B988B9C8B988B9C8B9D8B982
:10121400C8B988B9C8B988B9C8B988B9C8B9D8B972
:10122400C8B988B9C8B988B9C8B988B9C8B9D8B962
:10123400C8B988B9C8B988B9C8B988B9C8B9D8B952
:10124400C8B988B9C8B988B9C8B988B9C8B9D8B942
:10125400C8B988B9C8B988B9C8B988B9C8B9D8B932
:10126400C8B988B9C8B988B9C8B988B9C8B9D8B922
:10127400C8B988B9C8B988B9C8B988B9C8B9D8B912
:10128400C8B988B9C8B988B9C8B988B9C8B9D8B902
:10129400C8B988B9C8B988B9C8B988B9C8B9D8B9F2
:1012A400C8B988B9C8B988B9C8B988B9C8B9D8B9E2
:1012B400C8B988B9C8B988B9C8B988B9C8B9D8B9D2
:1012C400C8B988B9C8B988B9C8B988B9C8B9D8B9C2
:1012D400C8B988B9C8B988B9C8B988B9C8B9D8B9B2
:1012E400C8B988B9C8B988B9C8B988B9C8B9D8B9A2
:1012F400C8B988B9C8B988B9C8B988B9C8B9D8B992
:10130400C8B988B9C8B988B9C8B988B9C8B9D8B981
:10131400C8B988B9C8B988B9C8B988B9C8B9D8B971
:10132400C8B988B9C8B988B9C8B988B9C8B9D8B961
:10133400C8B988B9C8B988B9C8B988B9C8B9D8B951
:10134400C8B988B9C8B988B9C8B988B9C8B9D8B941
:10135400C8B988B9C8B988B9C8B988B9C8B9D8B931
:10136400C8B988B9C8B988B9C8B988B9C8B9D8B921
:10137400C8B988B9C8B988B9C8B988B9C8B9D8B911
:10138400C8B988B9C8B988B9C8B988B9C8B9D8B901
:10139400C8B988B9C8B988B9C8B988B9C8B9D8B9F1
:1013A400C8B988B9C8B988B9C8B988B9C8B9D8B9E1
:1013B400C8B988B9C8B988B9C8B988B9C8B9D8B9D1
:1013C400C8B988B9C8B988B9C8B988B9C8B9D8B9C1
:1013D400C8B988B9C8B988B9C8B988B9C8B9D8B9B1
:1013E400C8B988B9C8B988B9C8B988B9C8B9D8B9A1
:1013F400C8B988B9C8B988B9C8B988B9C8B9D8B991
:10140400C8B988B9C8B988B9C8B988B9C8B9D8B980
:10141400C8B988B9C8B988B9C8B988B9C8B9D8B970
:10142400C8B988B9C8B988B9C8B988B9C8B9D8B960
:10143400C8B988B9C8B988B9C8B988B9C8B9D8B950
:10144400C8B988B9C8B988B9C8B988B9C8B9D8B940
:10145400C8B988B9C8B988B9C8B988B9C8B9D8B930
:10146400C8B988B9C8B988B9C8B988B9C8B9D8B920
:10147400C8B988B9C8B988B9C8B988B9C8B9D8B910
:10148400C8B988B9C8B988B9C8B988B9C8B9D8B900
:10149400C8B988B9C8B988B9C8B988B9C8B9D8B9F0
:1014A400C8B988B9C8B988B9C8B988B9C8B9D8B9E0
:1014B400C8B988B9C8B988B9C8B988B9C8B9D8B9D0
:1014C400C8B988B9C8B988B9C8B988B9C8B9D8B9C0
:1014D400C8B988B9C8B988B9C8B988B9C8B9D8B9B0
:1014E400C8B988B9C8B988B9C8B988B9C8B9D8B9A0
:1014F400C8B988B9C8B988B9C8B988B9C8B9D8B990
:10150400C8B988B9C8B988B9C8B988B9C8B9D8B97F
:10151400C8B988B9C8B988B9C8B988B9C8B9D8B96F
:10152400C8B988B9C8B988B9C8B988B9C8B9D8B95F
:10153400C8B988B9C8B988B9C8B988B9C8B9D8B94F
:10154400C8B988B9C8B988B9C8B988B9C8B9D8B93F
:10155400C8B988B9C8B988B9C8B988B9C8B9D8B92F
:10156400C8B988B9C8B988B9C8B988B9C8B9D8B91F
:10157400C8B988B9C8B988B9C8B988B9C8B9D8B90F
:10158400C8B988B9C8B988B9C8B988B9C8B9D8B9FF
:10159400C8B988B9C8B988B9C8B988B9C8B9D8B9EF
:1015A400C8B988B9C8B988B9C8B988B9C8B9D8B9DF
:1015B400C8B988B9C8B988B9C8B988B9C8B9D8B9CF
:1015C400C8B988B9C8B988B9C8B988B9C8B9D8B9BF
:1015D400C8B988B9C8B988B9C8B988B9C8B9D8B9AF
:1015E400C8B988B9C8B988B9C8B988B9C8B9D8B99F
:1015F400C8B988B9C8B988B9C8B988B9C8B9D8B98F
:10160400C8B988B9C8B988B9C8B988B9C8B9D8B97E
:10161400C8B988B9C8B988B9C8B988B9C8B9D8B96E
:10162400C8B988B9C8B988B9C8B988B9C8B9D8B95E
:10163400C8B988B9C8B988B9C8B988B9C8B9D8B94E
:10164400C8B988B9C8B988B9C8B988B9C8B9D8B93E
:10165400C8B988B9C8B988B9C8B988B9C8B9D8B92E
:10166400C8B988B9C8B988B9C8B988B9C8B9D8B91E
:10167400C8B988B9C8B988B9C8B988B9C8B9D8B90E
:10168400C8B988B9C8B988B9C8B988B9C8B9D8B9FE
:10169400C8B988B9C8B988B9C8B988B9C8B9D8B9EE
:1016A400C8B988B9C8B988B9C8B988B9C8B9D8B9DE
:1016B400C8B988B9C8B988B9C8B988B9C8B9D8B9CE
:1016C400C8B988B9C8B988B9C8B988B9C8B9D8B9BE
:1016D400C8B988B9C8B988B9C8B988B9C8B9D8B9AE
:1016E400C8B988B9C8B988B9C8B988B9C8B9D8B99E
:1016F400C8B988B9C8B988B9C8B988B9C8B9D8B98E
:10170400C8B988B9C8B988B9C8B988B9C8B9D8B97D
:10171400C8B988B9C8B988B9C8B988B9C8B9D8B96D
:10172400C8B988B9C8B988B9C8B988B9C8B9D8B95D
:10173400C8B988B9C8B988B9C8B988B9C8B9D8B94D
:10174400C8B988B9C8B988B9C8B988B9C8B9D8B93D
:10175400C8B988B9C8B988B9C8B988B9C8B9D8B92D
:10176400C8B988B9C8B988B9C8B988B9C8B9D8B91D
:10177400C8B988B9C8B988B9C8B988B9C8B9D8B90D
:10178400C8B988B9C8B988B9C8B988B9C8B9D8B9FD
:10179400C8B988B9C8B988B9C8B988B9C8B9D8B9ED
:1017A400C8B988B9C8B988B9C8B988B9C8B9D8B9DD
:1017B400C8B988B9C8B988B9C8B988B9C8B9D8B9CD
:1017C400C8B988B9C8B988B9C8B988B9C8B9D8B9BD
:1017D400C8B988B9C8B988B9C8B988B9C8B9D8B9AD
:1017E400C8B988B9C8B988B9C8B988B9C8B9D8B99D
:1017F400C8B988B9C8B988B9C8B988B9C8B9D8B98D
:10180400C8B988B9C8B988B9C8B988B9C8B9D8B97C
:10181400C8B988B9C8B988B9C8B988B9C8B9D8B96C
:10182400C8B988B9C8B988B9C8B988B9C8B9D8B95C
:10183400C8B988B9C8B988B9C8B988B9C8B9D8B94C
:10184400C8B988B9C8B988B9C8B988B9C8B9D8B93C
:10185400C8B988B9C8B988B9C8B988B9C8B9D8B92C
:10186400C8B988B9C8B988B9C8B988B9C8B9D8B91C
:10187400C8B988B9C8B988B9C8B988B9C8B9D8B90C
:10188400C8B988B9C8B988B9C8B988B9C8B9D8B9FC
:10189400C8B988B9C8B988B9C8B988B9C8B9D8B9EC
:1018A400C8B988B9C8B988B9C8B988B9C8B9D8B9DC
:1018B400C8B988B9C8B988B9C8B988B9C8B9D8B9CC
:1018C400C8B988B9C8B988B9C8B988B9C8B9D8B9BC
:1018D400C8B988B9C8B988B9C8B988B9C8B9D8B9AC
:1018E400C8B988B9C8B988B9C8B988B9C8B9D8B99C
:1018F400C8B988B9C8B988B9C8B988B9C8B9D8B98C
:10190400C8B988B9C8B988B9C8B988B9C8B9D8B97B
:10191400C8B988B9C8B988B9C8B988B9C8B9D8B96B
:10192400C8B988B9C8B988B9C8B988B9C8B9D8B95B
:10193400C8B988B9C8B988B9C8B988B9C8B9D8B94B
:10194400C8B988B9C8B988B9C8B988B9C8B9D8B93B
:10195400C8B988B9C8B988B9C8B988B9C8B9D8B92B
:10196400C8B988B9C8B988B9C8B988B9C8B9D8B91B
:10197400C8B988B9C8B988B9C8B988B9C8B9D8B90B
:10198400C8B988B9C8B988B9C8B988B9C8B9D8B9FB
:10199400C8B988B9C8B988B9C8B988B9C8B9D8B9EB
:1019A400C8B988B9C8B988B9C8B988B9C8B9D8B9DB
:1019B400C8B988B9C8B988B9C8B988B9C8B9D8B9CB
:1019C400C8B988B9C8B988B9C8B988B9C8B9D8B9BB
:1019D400C8B988B9C8B988B9C8B988B9C8B9D8B9AB
:1019E400C8B988B9C8B988B9C8B988B9C8B9D8B99B
:1019F400C8B988B9C8B988B9C8B988B9C8B9D8B98B
:101A0400C8B988B9C8B988B9C8B988B9C8B9D8B97A
:101A1400C8B988B9C8B988B9C8B988B9C8B9D8B96A
:101A2400C8B988B9C8B988B9C8B988B9C8B9D8B95A
:101A3400C8B988B9C8B988B9C8B988B9C8B9D8B94A
:101A4400C8B988B9C8B988B9C8B988B9C8B9D8B93A
:101A5400C8B988B9C8B988B9C8B988B9C8B9D8B92A
:101A6400C8B988B9C8B988B9C8B988B9C8B9D8B91A
:101A7400C8B988B9C8B988B9C8B988B9C8B9D8B90A
:101A8400C8B988B9C8B988B9C8B988B9C8B9D8B9FA
:101A9400C8B988B9C8B988B9C8B988B9C8B9D8B9EA
:101AA400C8B988B9C8B988B9C8B988B9C8B9D8B9DA
:101AB400C8B988B9C8B988B9C8B988B9C8B9D8B9CA
:101AC400C8B988B9C8B988B9C8B988B9C8B9D8B9BA
:101AD400C8B988B9C8B988B9C8B988B9C8B9D8B9AA
:101AE400C8B988B9C8B988B9C8B988B9C8B9D8B99A
:101AF400C8B988B9C8B988B9C8B988B9C8B9D8B98A
:101B0400C8B988B9C8B988B9C8B988B9C8B9D8B979
:101B1400C8B988B9C8B988B9C8B988B9C8B9D8B969
:101B2400C8B988B9C8B988B9C8B988B9C8B9D8B959
:101B3400C8B988B9C8B988B9C8B988B9C8B9D8B949
:101B4400C8B988B9C8B988B9C8B988B9C8B9D8B939
:101B5400C8B988B9C8B988B9C8B988B9C8B9D8B929
:101B6400C8B988B9C8B988B9C8B988B9C8B9D8B919
:101B7400C8B988B9C8B988B9C8B988B9C8B9D8B909
:101B8400C8B988B9C8B988B9C8B988B9C8B9D8B9F9
:101B9400C8B988B9C8B988B9C8B988B9C8B9D8B9E9
:101BA400C8B988B9C8B988B9C8B988B9C8B9D8B9D9
:101BB400C8B988B9C8B988B9C8B988B9C8B9D8B9C9
:101BC400C8B988B9C8B988B9C8B988B9C8B9D8B9B9
:101BD400C8B988B9C8B988B9C8B988B9C8B9D8B9A9
:101BE400C8B988B9C8B988B9C8B988B9C8B9D8B999
:101BF400C8B988B9C8B988B9C8B988B9C8B9D8B989
:101C0400C8B988B9C8B988B9C8B988B9C8B9D8B978
:101C1400C8B988B9C8B988B9C8B988B9C8B9D8B968
:101C2400C8B988B9C8B988B9C8B988B9C8B9D8B958
:101C3400C8B988B9C8B988B9C8B988B9C8B9D8B948
:101C4400C8B988B9C8B988B9C8B988B9C8B9D8B938
:101C5400C8B988B9C8B988B9C8B988B9C8B9D8B928
:101C6400C8B988B9C8B988B9C8B988B9C8B9D8B918
:101C7400C8B988B9C8B988B9C8B988B9C8B9D8B908
:101C8400C8B988B9C8B988B9C8B988B9C8B9D8B9F8
:101C9400C8B988B9C8B988B9C8B988B9C8B9D8B9E8
:101CA400C8B988B9C8B988B9C8B988B9C8B9D8B9D8
:101CB400C8B988B9C8B988B9C8B988B9C8B9D8B9C8
:101CC400C8B988B9C8B988B9C8B988B9C8B9D8B9B8
:101CD400C8B988B9C8B988B9C8B988B9C8B9D8B9A8
:101CE400C8B988B9C8B988B9C8B988B9C8B9D8B998
:101CF400C8B988B9C8B988B9C8B988B9C8B9D8B988
:101D0400C8B988B9C8B988B9C8B988B9C8B9D8B977
:101D1400C8B988B9C8B988B9C8B988B9C8B9D8B967
:101D2400C8B988B9C8B988B9C8B988B9C8B9D8B957
:101D3400C8B988B9C8B988B9C8B988B9C8B9D8B947
:101D4400C8B988B9C8B988B9C8B988B9C8B9D8B937
:101D5400C8B988B9C8B988B9C8B988B9C8B9D8B927
:101D6400C8B988B9C8B988B9C8B988B9C8B9D8B917
:101D7400C8B988B9C8B988B9C8B988B9C8B9D8B907
:101D8400C8B988B9C8B988B9C8B988B9C8B9D8B9F7
:101D9400C8B988B9C8B988B9C8B988B9C8B9D8B9E7
:101DA400C8B988B9C8B988B9C8B988B9C8B9D8B9D7
:101DB400C8B988B9C8B988B9C8B988B9C8B9D8B9C7
:101DC400C8B988B9C8B988B9C8B988B9C8B9D8B9B7
:101DD400C8B988B9C8B988B9C8B988B9C8B9D8B9A7
:101DE400C8B988B9C8B988B9C8B988B9C8B9D8B997
:101DF400C8B988B9C8B988B9C8B988B9C8B9D8B987
:101E0400C8B988B9C8B988B9C8B988B9C8B9D8B976
:101E1400C8B988B9C8B988B9C8B988B9C8B9D8B966
:101E2400C8B988B9C8B988B9C8B988B9C8B9D8B956
:101E3400C8B988B9C8B988B9C8B988B9C8B9D8B946
:101E4400C8B988B9C8B988B9C8B988B9C8B9D8B936
:101E5400C8B988B9C8B988B9C8B988B9C8B9D8B926
:101E6400C8B988B9C8B988B9C8B988B9C8B9D8B916
:101E7400C8B988B9C8B988B9C8B988B9C8B9D8B906
:101E8400C8B988B9C8B988B9C8B988B9C8B9D8B9F6
:101E9400C8B988B9C8B988B9C8B988B9C8B9D8B9E6
:101EA400C8B988B9C8B988B9C8B988B9C8B9D8B9D6
:101EB400C8B988B9C8B988B9C8B988B9C8B9D8B9C6
:101EC400C8B988B9C8B988B9C8B988B9C8B9D8B9B6
:101ED400C8B988B9C8B988B9C8B988B9C8B9D8B9A6
:101EE400C8B988B9C8B988B9C8B988B9C8B9D8B996
:101EF400C8B988B9C8B988B9C8B988B9C8B9D8B986
:101F0400C8B988B9C8B988B9C8B988B9C8B9D8B975
:101F1400C8B988B9C8B988B9C8B988B9C8B9D8B965
:101F2400C8B988B9C8B988B9C8B988B9C8B9D8B955
:101F3400C8B988B9C8B988B9C8B988B9C8B9D8B945
:101F4400C8B988B9C8B988B9C8B988B9C8B9D8B935
:101F5400C8B988B9C8B988B9C8B988B9C8B9D8B925
:101F6400C8B988B9C8B988B9C8B988B9C8B9D8B915
:101F7400C8B988B9C8B988B9C8B988B9C8B9D8B905
:101F8400C8B988B9C8B988B9C8B988B9C8B9D8B9F5
:101F9400C8B988B9C8B988B9C8B988B9C8B9D8B9E5
:101FA400C8B988B9C8B988B9C8B988B9C8B9D8B9D5
:101FB400C8B988B9C8B988B9C8B988B9C8B9D8B9C5
:101FC400C8B988B9C8B988B9C8B988B9C8B9D8B9B5
:101FD400C8B988B9C8B988B9C8B988B9C8B9D8B9A5
:101FE400C8B988B9C8B988B9C8B988B9C8B9D8B995
:101FF400C8B988B9C8B988B9C8B988B9C8B9D8B985
:10200400C8B988B9C8B988B9C8B988B9C8B9D8B974
:10201400C8B988B9C8B988B9C8B988B9C8B9D8B964
:10202400C8B988B9C8B988B9C8B988B9C8B9D8B954
:10203400C8B988B9C8B988B9C8B988B9C8B9D8B944
:10204400C8B988B9C8B988B9C8B988B9C8B9D8B934
:10205400C8B988B9C8B988B9C8B988B9C8B9D8B924
:10206400C8B988B9C8B988B9C8B988B9C8B9D8B914
:10207400C8B988B9C8B988B9C8B988B9C8B9D8B904
:10208400C8B988B9C8B988B9C8B988B9C8B9D8B9F4
:10209400C8B988B9C8B988B9C8B988B9C8B9D8B9E4
:1020A400C8B988B9C8B988B9C8B988B9C8B9D8B9D4
:1020B400C8B988B9C8B988B9C8B988B9C8B9D8B9C4
:1020C400C8B988B9C8B988B9C8B988B9C8B9D8B9B4
:1020D400C8B988B9C8B988B9C8B988B9C8B9D8B9A4
:1020E400C8B988B9C8B988B9C8B988B9C8B9D8B994
:1020F400C8B988B9C8B988B9C8B988B9C8B9D8B984
:10210400C8B988B9C8B988B9C8B988B9C8B9D8B973
:10211400C8B988B9C8B988B9C8B988B9C8B9D8B963
:10212400C8B988B9C8B988B9C8B988B9C8B9D8B953
:10213400C8B988B9C8B988B9C8B988B9C8B9D8B943
:10214400C8B988B9C8B988B9C8B988B9C8B9D8B933
:10215400C8B988B9C8B988B9C8B988B9C8B9D8B923
:10216400C8B988B9C8B988B9C8B988B9C8B9D8B913
:10217400C8B988B9C8B988B9C8B988B9C8B9D8B903
:10218400C8B988B9C8B988B9C8B988B9C8B9D8B9F3
:10219400C8B988B9C8B988B9C8B988B9C8B9D8B9E3
:1021A400C8B988B9C8B988B9C8B988B9C8B9D8B9D3
:1021B400C8B988B9C8B988B9C8B988B9C8B9D8B9C3
:1021C400C8B988B9C8B988B9C8B988B9C8B9D8B9B3
:1021D400C8B988B9C8B988B9C8B988B9C8B9D8B9A3
:1021E400C8B988B9C8B988B9C8B988B9C8B9D8B993
:1021F400C8B988B9C8B988B9C8B988B9C8B9D8B983
:10220400C8B988B9C8B988B9C8B988B9C8B9D8B972
:10221400C8B988B9C8B988B9C8B988B9C8B9D8B962
:10222400C8B988B9C8B988B9C8B988B9C8B9D8B952
:10223400C8B988B9C8B988B9C8B988B9C8B9D8B942
:10224400C8B988B9C8B988B9C8B988B9C8B9D8B932
:10225400C8B988B9C8B988B9C8B988B9C8B9D8B922
:10226400C8B988B9C8B988B9C8B988B9C8B9D8B912
:10227400C8B988B9C8B988B9C8B988B9C8B9D8B902
:10228400C8B988B9C8B988B9C8B988B9C8B9D8B9F2
:10229400C8B988B9C8B988B9C8B988B9C8B9D8B9E2
:1022A400C8B988B9C8B988B9C8B988B9C8B9D8B9D2
:1022B400C8B988B9C8B988B9C8B988B9C8B9D8B9C2
:1022C400C8B988B9C8B988B9C8B988B9C8B9D8B9B2
:1022D400C8B988B9C8B988B9C8B988B9C8B9D8B9A2
:1022E400C8B988B9C8B988B9C8B988B9C8B9D8B992
:1022F400C8B988B9C8B988B9C8B988B9C8B9D8B982
:10230400C8B988B9C8B988B9C8B988B9C8B9D8B971
:10231400C8B988B9C8B988B9C8B988B9C8B9D8B961
:10232400C8B988B9C8B988B9C8B988B9C8B9D8B951
:10233400C8B988B9C8B988B9C8B988B9C8B9D8B941
:10234400C8B988B9C8B988B9C8B988B9C8B9D8B931
:10235400C8B988B9C8B988B9C8B988B9C8B9D8B921
:10236400C8B988B9C8B988B9C8B988B9C8B9D8B911
:10237400C8B988B9C8B988B9C8B988B9C8B9D8B901
:10238400C8B988B9C8B988B9C8B988B9C8B9D8B9F1
:10239400C8B988B9C8B988B9C8B988B9C8B9D8B9E1
:1023A400C8B988B9C8B988B9C8B988B9C8B9D8B9D1
:1023B400C8B988B9C8B988B9C8B988B9C8B9D8B9C1
:1023C400C8B988B9C8B988B9C8B988B9C8B9D8B9B1
:1023D400C8B988B9C8B988B9C8B988B9C8B9D8B9A1
:1023E400C8B988B9C8B988B9C8B988B9C8B9D8B991
:1023F400C8B988B9C8B988B9C8B988B9C8B9D8B981
:10240400C8B988B9C8B988B9C8B988B9C8B9D8B970
:10241400C8B988B9C8B988B9C8B988B9C8B9D8B960
:10242400C8B988B9C8B988B9C8B988B9C8B9D8B950
:10243400C8B988B9C8B988B9C8B988B9C8B9D8B940
:10244400C8B988B9C8B988B9C8B988B9C8B9D8B930
:10245400C8B988B9C8B988B9C8B988B9C8B9D8B920
:10246400C8B988B9C8B988B9C8B988B9C8B9D8B910
:10247400C8B988B9C8B988B9C8B988B9C8B9D8B900
:10248400C8B988B9C8B988B9C8B988B9C8B9D8B9F0
:10249400C8B988B9C8B988B9C8B988B9C8B9D8B9E0
:1024A400C8B988B9C8B988B9C8B988B9C8B9D8B9D0
:1024B400C8B988B9C8B988B9C8B988B9C8B9D8B9C0
:1024C400C8B988B9C8B988B9C8B988B9C8B9D8B9B0
:1024D400C8B988B9C8B988B9C8B988B9C8B9D8B9A0
:1024E400C8B988B9C8B988B9C8B988B9C8B9D8B990
:1024F400C8B988B9C8B988B9C8B988B9C8B9D8B980
:10250400C8B988B9C8B988B9C8B988B9C8B9D8B96F
:10251400C8B988B9C8B988B9C8B988B9C8B9D8B95F
:10252400C8B988B9C8B988B9C8B988B9C8B9D8B94F
:10253400C8B988B9C8B988B9C8B988B9C8B9D8B93F
:10254400C8B988B9C8B988B9C8B988B9C8B9D8B92F
:10255400C8B988B9C8B988B9C8B988B9C8B9D8B91F
:10256400C8B988B9C8B988B9C8B988B9C8B9D8B90F
:10257400C8B988B9C8B988B9C8B988B9C8B9D8B9FF
:10258400C8B988B9C8B988B9C8B988B9C8B9D8B9EF
:10259400C8B988B9C8B988B9C8B988B9C8B9D8B9DF
:1025A400C8B988B9C8B988B9C8B988B9C8B9D8B9CF
:1025B400C8B988B9C8B988B9C8B988B9C8B9D8B9BF
:1025C400C8B988B9C8B988B9C8B988B9C8B9D8B9AF
:1025D400C8B988B9C8B988B9C8B988B9C8B9D8B99F
:1025E400C8B988B9C8B988B9C8B988B9C8B9D8B98F
:1025F400C8B988B9C8B988B9C8B988B9C8B9D8B97F
:10260400C8B988B9C8B988B9C8B988B9C8B9D8B96E
:10261400C8B988B9C8B988B9C8B988B9C8B9D8B95E
:10262400C8B988B9C8B988B9C8B988B9C8B9D8B94E
:10263400C8B988B9C8B988B9C8B988B9C8B9D8B93E
:10264400C8B988B9C8B988B9C8B988B9C8B9D8B92E
:10265400C8B988B9C8B988B9C8B988B9C8B9D8B91E
:10266400C8B988B9C8B988B9C8B988B9C8B9D8B90E
:10267400C8B988B9C8B988B9C8B988B9C8B9D8B9FE
:10268400C8B988B9C8B988B9C8B988B9C8B9D8B9EE
:10269400C8B988B9C8B988B9C8B988B9C8B9D8B9DE
:1026A400C8B988B9C8B988B9C8B988B9C8B9D8B9CE
:1026B400C8B988B9C8B988B9C8B988B9C8B9D8B9BE
:1026C400C8B988B9C8B988B9C8B988B9C8B9D8B9AE
:1026D400C8B988B9C8B988B9C8B988B9C8B9D8B99E
:1026E400C8B988B9C8B988B9C8B988B9C8B9D8B98E
:1026F400C8B988B9C8B988B9C8B988B9C8B9D8B97E
:10270400C8B988B9C8B988B9C8B988B9C8B9D8B96D
:10271400C8B988B9C8B988B9C8B988B9C8B9D8B95D
:10272400C8B988B9C8B988B9C8B988B9C8B9D8B94D
:10273400C8B988B9C8B988B9C8B988B9C8B9D8B93D
:10274400C8B988B9C8B988B9C8B988B9C8B9D8B92D
:10275400C8B988B9C8B988B9C8B988B9C8B9D8B91D
:10276400C8B988B9C8B988B9C8B988B9C8B9D8B90D
:10277400C8B988B9C8B988B9C8B988B9C8B9D8B9FD
:10278400C8B988B9C8B988B9C8B988B9C8B9D8B9ED
:10279400C8B988B9C8B988B9C8B988B9C8B9D8B9DD
:1027A400C8B988B9C8B988B9C8B988B9C8B9D8B9CD
:1027B400C8B988B9C8B988B9C8B988B9C8B9D8B9BD
:1027C400C8B988B9C8B988B9C8B988B9C8B9D8B9AD
:1027D400C8B988B9C8B988B9C8B988B9C8B9D8B99D
:1027E400C8B988B9C8B988B9C8B988B9C8B9D8B98D
:1027F400C8B988B9C8B988B9C8B988B9C8B9D8B97D
:10280400C8B988B9C8B988B9C8B988B9C8B9D8B96C
:10281400C8B988B9C8B988B9C8B988B9C8B9D8B95C
:10282400C8B988B9C8B988B9C8B988B9C8B9D8B94C
:10283400C8B988B9C8B988B9C8B988B9C8B9D8B93C
:10284400C8B988B9C8B988B9C8B988B9C8B9D8B92C
:10285400C8B988B9C8B988B9C8B988B9C8B9D8B91C
:10286400C8B988B9C8B988B9C8B988B9C8B9D8B90C
:10287400C8B988B9C8B988B9C8B988B9C8B9D8B9FC
:10288400C8B988B9C8B988B9C8B988B9C8B9D8B9EC
:10289400C8B988B9C8B988B9C8B988B9C8B9D8B9DC
:1028A400C8B988B9C8B988B9C8B988B9C8B9D8B9CC
:1028B400C8B988B9C8B988B9C8B988B9C8B9D8B9BC
:1028C400C8B988B9C8B988B9C8B988B9C8B9D8B9AC
:1028D400C8B988B9C8B988B9C8B988B9C8B9D8B99C
:1028E400C8B988B9C8B988B9C8B988B9C8B9D8B98C
:1028F400C8B988B9C8B988B9C8B988B9C8B9D8B97C
:10290400C8B988B9C8B988B9C8B988B9C8B9D8B96B
:10291400C8B988B9C8B988B9C8B988B9C8B9D8B95B
:10292400C8B988B9C8B988B9C8B988B9C8B9D8B94B
:10293400C8B988B9C8B988B9C8B988B9C8B9D8B93B
:10294400C8B988B9C8B988B9C8B988B9C8B9D8B92B
:10295400C8B988B9C8B988B9C8B988B9C8B9D8B91B
:10296400C8B988B9C8B988B9C8B988B9C8B9D8B90B
:10297400C8B988B9C8B988B9C8B988B9C8B9D8B9FB
:10298400C8B988B9C8B988B9C8B988B9C8B9D8B9EB
:10299400C8B988B9C8B988B9C8B988B9C8B9D8B9DB
:1029A400C8B988B9C8B988B9C8B988B9C8B9D8B9CB
:1029B400C8B988B9C8B988B9C8B988B9C8B9D8B9BB
:1029C400C8B988B9C8B988B9C8B988B9C8B9D8B9AB
:1029D400C8B988B9C8B988B9C8B988B9C8B9D8B99B
:1029E400C8B988B9C8B988B9C8B988B9C8B9D8B98B
:1029F400C8B988B9C8B988B9C8B988B9C8B9D8B97B
:102A0400C8B988B9C8B988B9C8B988B9C8B9D8B96A
:102A1400C8B988B9C8B988B9C8B988B9C8B9D8B95A
:102A2400C8B988B9C8B988B9C8B988B9C8B9D8B94A
:102A3400C8B988B9C8B988B9C8B988B9C8B9D8B93A
:102A4400C8B988B9C8B988B9C8B988B9C8B9D8B92A
:102A5400C8B988B9C8B988B9C8B988B9C8B9D8B91A
:102A6400C8B988B9C8B988B9C8B988B9C8B9D8B90A
:102A7400C8B988B9C8B988B9C8B988B9C8B9D8B9FA
:102A8400C8B988B9C8B988B9C8B988B9C8B9D8B9EA
:102A9400C8B988B9C8B988B9C8B988B9C8B9D8B9DA
:102AA400C8B988B9C8B988B9C8B988B9C8B9D8B9CA
:102AB400C8B988B9C8B988B9C8B988B9C8B9D8B9BA
:102AC400C8B988B9C8B988B9C8B988B9C8B9D8B9AA
:102AD400C8B988B9C8B988B9C8B988B9C8B9D8B99A
:102AE400C8B988B9C8B988B9C8B988B9C8B9D8B98A
:102AF400C8B988B9C8B988B9C8B988B9C8B9D8B97A
:102B0400C8B988B9C8B988B9C8B988B9C8B9D8B969
:102B1400C8B988B9C8B988B9C8B988B9C8B9D8B959
:102B2400C8B988B9C8B988B9C8B988B9C8B9D8B949
:102B3400C8B988B9C8B988B9C8B988B9C8B9D8B939
:102B4400C8B988B9C8B988B9C8B988B9C8B9D8B929
:102B5400C8B988B9C8B988B9C8B988B9C8B9D8B919
:102B6400C8B988B9C8B988B9C8B988B9C8B9D8B909
:102B7400C8B988B9C8B988B9C8B988B9C8B9D8B9F9
:102B8400C8B988B9C8B988B9C8B988B9C8B9D8B9E9
:102B9400C8B988B9C8B988B9C8B988B9C8B9D8B9D9
:102BA400C8B988B9C8B988B9C8B988B9C8B9D8B9C9
:102BB400C8B988B9C8B988B9C8B988B9C8B9D8B9B9
:102BC400C8B988B9C8B988B9C8B988B9C8B9D8B9A9
:102BD400C8B988B9C8B988B9C8B988B9C8B9D8B999
:102BE400C8B988B9C8B988B9C8B988B9C8B9D8B989
:102BF400C8B988B9C8B988B9C8B988B9C8B9D8B979
:102C0400C8B988B9C8B988B9C8B988B9C8B9D8B968
:102C1400C8B988B9C8B988B9C8B988B9C8B9D8B958
:102C2400C8B988B9C8B988B9C8B988B9C8B9D8B948
:102C3400C8B988B9C8B988B9C8B988B9C8B9D8B938
:102C4400C8B988B9C8B988B9C8B988B9C8B9D8B928
:102C5400C8B988B9C8B988B9C8B988B9C8B9D8B918
:102C6400C8B988B9C8B988B9C8B988B9C8B9D8B908
:102C7400C8B988B9C8B988B9C8B988B9C8B9D8B9F8
:102C8400C8B988B9C8B988B9C8B988B9C8B9D8B9E8
:102C9400C8B988B9C8B988B9C8B988B9C8B9D8B9D8
:102CA400C8B988B9C8B988B9C8B988B9C8B9D8B9C8
:102CB400C8B988B9C8B988B9C8B988B9C8B9D8B9B8
:102CC400C8B988B9C8B988B9C8B988B9C8B9D8B9A8
:102CD400C8B988B9C8B988B9C8B988B9C8B9D8B998
:102CE400C8B988B9C8B988B9C8B988B9C8B9D8B988
:102CF400C8B988B9C8B988B9C8B988B9C8B9D8B978
:102D0400C8B988B9C8B988B9C8B988B9C8B9D8B967
:102D1400C8B988B9C8B988B9C8B988B9C8B9D8B957
:102D2400C8B988B9C8B988B9C8B988B9C8B9D8B947
:102D3400C8B988B9C8B988B9C8B988B9C8B9D8B937
:102D4400C8B988B9C8B988B9C8B988B9C8B9D8B927
:102D5400C8B988B9C8B988B9C8B988B9C8B9D8B917
:102D6400C8B988B9C8B988B9C8B988B9C8B9D8B907
:102D7400C8B988B9C8B988B9C8B988B9C8B9D8B9F7
:102D8400C8B988B9C8B988B9C8B988B9C8B9D8B9E7
:102D9400C8B988B9C8B988B9C8B988B9C8B9D8B9D7
:102DA400C8B988B9C8B988B9C8B988B9C8B9D8B9C7
:102DB400C8B988B9C8B988B9C8B988B9C8B9D8B9B7
:102DC400C8B988B9C8B988B9C8B988B9C8B9D8B9A7
:102DD400C8B988B9C8B988B9C8B988B9C8B9D8B997
:102DE400C8B988B9C8B988B9C8B988B9C8B9D8B987
:102DF400C8B988B9C8B988B9C8B988B9C8B9D8B977
:102E0400C8B988B9C8B988B9C8B988B9C8B9D8B966
:102E1400C8B988B9C8B988B9C8B988B9C8B9D8B956
:102E2400C8B988B9C8B988B9C8B988B9C8B9D8B946
:102E3400C8B988B9C8B988B9C8B988B9C8B9D8B936
:102E4400C8B988B9C8B988B9C8B988B9C8B9D8B926
:102E5400C8B988B9C8B988B9C8B988B9C8B9D8B916
:102E6400C8B988B9C8B988B9C8B988B9C8B9D8B906
:102E7400C8B988B9C8B988B9C8B988B9C8B9D8B9F6
:102E8400C8B988B9C8B988B9C8B988B9C8B9D8B9E6
:102E9400C8B988B9C8B988B9C8B988B9C8B9D8B9D6
:102EA400C8B988B9C8B988B9C8B988B9C8B9D8B9C6
:102EB400C8B988B9C8B988B9C8B988B9C8B9D8B9B6
:102EC400C8B988B9C8B988B9C8B988B9C8B9D8B9A6
:102ED400C8B988B9C8B988B9C8B988B9C8B9D8B996
:102EE400C8B988B9C8B988B9C8B988B9C8B9D8B986
:102EF400C8B988B9C8B988B9C8B988B9C8B9D8B976
:102F0400C8B988B9C8B988B9C8B988B9C8B9D8B965
:102F1400C8B988B9C8B988B9C8B988B9C8B9D8B955
:102F2400C8B988B9C8B988B9C8B988B9C8B9D8B945
:102F3400C8B988B9C8B988B9C8B988B9C8B9D8B935
:102F4400C8B988B9C8B988B9C8B988B9C8B9D8B925
:102F5400C8B988B9C8B988B9C8B988B9C8B9D8B915
:102F6400C8B988B9C8B988B9C8B988B9C8B9D8B905
:102F7400C8B988B9C8B988B9C8B988B9C8B9D8B9F5
:102F8400C8B988B9C8B988B9C8B988B9C8B9D8B9E5
:102F9400C8B988B9C8B988B9C8B988B9C8B9D8B9D5
:102FA400C8B988B9C8B988B9C8B988B9C8B9D8B9C5
:102FB400C8B988B9C8B988B9C8B988B9C8B9D8B9B5
:102FC400C8B988B9C8B988B9C8B988B9C8B9D8B9A5
:102FD400C8B988B9C8B988B9C8B988B9C8B9D8B995
:102FE400C8B988B9C8B988B9C8B988B9C8B9D8B985
:102FF400C8B988B9C8B988B9C8B988B9C8B9D8B975
:10300400C8B988B9C8B988B9C8B988B9C8B9D8B964
:10301400C8B988B9C8B988B9C8B988B9C8B9D8B954
:10302400C8B988B9C8B988B9C8B988B9C8B9D8B944
:10303400C8B988B9C8B988B9C8B988B9C8B9D8B934
:10304400C8B988B9C8B988B9C8B988B9C8B9D8B924
:10305400C8B988B9C8B988B9C8B988B9C8B9D8B914
:10306400C8B988B9C8B988B9C8B988B9C8B9D8B904
:10307400C8B988B9C8B988B9C8B988B9C8B9D8B9F4
:10308400C8B988B9C8B988B9C8B988B9C8B9D8B9E4
:10309400C8B988B9C8B988B9C8B988B9C8B9D8B9D4
:1030A400C8B988B9C8B988B9C8B988B9C8B9D8B9C4
:1030B400C8B988B9C8B988B9C8B988B9C8B9D8B9B4
:1030C400C8B988B9C8B988B9C8B988B9C8B9D8B9A4
:1030D400C8B988B9C8B988B9C8B988B9C8B9D8B994
:1030E400C8B988B9C8B988B9C8B988B9C8B9D8B984
:1030F400C8B988B9C8B988B9C8B988B9C8B9D8B974
:10310400C8B988B9C8B988B9C8B988B9C8B9D8B963
:10311400C8B988B9C8B988B9C8B988B9C8B9D8B953
:10312400C8B988B9C8B988B9C8B988B9C8B9D8B943
:10313400C8B988B9C8B988B9C8B988B9C8B9D8B933
:10314400C8B988B9C8B988B9C8B988B9C8B9D8B923
:10315400C8B988B9C8B988B9C8B988B9C8B9D8B913
:10316400C8B988B9C8B988B9C8B988B9C8B9D8B903
:10317400C8B988B9C8B988B9C8B988B9C8B9D8B9F3
:10318400C8B988B9C8B988B9C8B988B9C8B9D8B9E3
:10319400C8B988B9C8B988B9C8B988B9C8B9D8B9D3
:1031A400C8B988B9C8B988B9C8B988B9C8B9D8B9C3
:1031B400C8B988B9C8B988B9C8B988B9C8B9D8B9B3
:1031C400C8B988B9C8B988B9C8B988B9C8B9D8B9A3
:1031D400C8B988B9C8B988B9C8B988B9C8B9D8B993
:1031E400C8B988B9C8B988B9C8B988B9C8B9D8B983
:1031F400C8B988B9C8B988B9C8B988B9C8B9D8B973
:10320400C8B988B9C8B988B9C8B988B9C8B9D8B962
:10321400C8B988B9C8B988B9C8B988B9C8B9D8B952
:10322400C8B988B9C8B988B9C8B988B9C8B9D8B942
:10323400C8B988B9C8B988B9C8B988B9C8B9D8B932
:10324400C8B988B9C8B988B9C8B988B9C8B9D8B922
:10325400C8B988B9C8B988B9C8B988B9C8B9D8B912
:10326400C8B988B9C8B988B9C8B988B9C8B9D8B902
:10327400C8B988B9C8B988B9C8B988B9C8B9D8B9F2
:10328400C8B988B9C8B988B9C8B988B9C8B9D8B9E2
:10329400C8B988B9C8B988B9C8B988B9C8B9D8B9D2
:1032A400C8B988B9C8B988B9C8B988B9C8B9D8B9C2
:1032B400C8B988B9C8B988B9C8B988B9C8B9D8B9B2
:1032C400C8B988B9C8B988B9C8B988B9C8B9D8B9A2
:1032D400C8B988B9C8B988B9C8B988B9C8B9D8B992
:1032E400C8B988B9C8B988B9C8B988B9C8B9D8B982
:1032F400C8B988B9C8B988B9C8B988B9C8B9D8B972
:10330400C8B988B9C8B988B9C8B988B9C8B9D8B961
:10331400C8B988B9C8B988B9C8B988B9C8B9D8B951
:10332400C8B988B9C8B988B9C8B988B9C8B9D8B941
:10333400C8B988B9C8B988B9C8B988B9C8B9D8B931
:10334400C8B988B9C8B988B9C8B988B9C8B9D8B921
:10335400C8B988B9C8B988B9C8B988B9C8B9D8B911
:10336400C8B988B9C8B988B9C8B988B9C8B9D8B901
:10337400C8B988B9C8B988B9C8B988B9C8B9D8B9F1
:10338400C8B988B9C8B988B9C8B988B9C8B9D8B9E1
:10339400C8B988B9C8B988B9C8B988B9C8B9D8B9D1
:1033A400C8B988B9C8B988B9C8B988B9C8B9D8B9C1
:1033B400C8B988B9C8B988B9C8B988B9C8B9D8B9B1
:1033C400C8B988B9C8B988B9C8B988B9C8B9D8B9A1
:1033D400C8B988B9C8B988B9C8B988B9C8B9D8B991
:1033E400C8B988B9C8B988B9C8B988B9C8B9D8B981
:1033F400C8B988B9C8B988B9C8B988B9C8B9D8B971
:10340400C8B988B9C8B988B9C8B988B9C8B9D8B960
:10341400C8B988B9C8B988B9C8B988B9C8B9D8B950
:10342400C8B988B9C8B988B9C8B988B9C8B9D8B940
:10343400C8B988B9C8B988B9C8B988B9C8B9D8B930
:10344400C8B988B9C8B988B9C8B988B9C8B9D8B920
:10345400C8B988B9C8B988B9C8B988B9C8B9D8B910
:10346400C8B988B9C8B988B9C8B988B9C8B9D8B900
:10347400C8B988B9C8B988B9C8B988B9C8B9D8B9F0
:10348400C8B988B9C8B988B9C8B988B9C8B9D8B9E0
:10349400C8B988B9C8B988B9C8B988B9C8B9D8B9D0
:1034A400C8B988B9C8B988B9C8B988B9C8B9D8B9C0
:1034B400C8B988B9C8B988B9C8B988B9C8B9D8B9B0
:1034C400C8B988B9C8B988B9C8B988B9C8B9D8B9A0
:1034D400C8B988B9C8B988B9C8B988B9C8B9D8B990
:1034E400C8B988B9C8B988B9C8B988B9C8B9D8B980
:1034F400C8B988B9C8B988B9C8B988B9C8B9D8B970
:10350400C8B988B9C8B988B9C8B988B9C8B9D8B95F
:10351400C8B988B9C8B988B9C8B988B9C8B9D8B94F
:10352400C8B988B9C8B988B9C8B988B9C8B9D8B93F
:10353400C8B988B9C8B988B9C8B988B9C8B9D8B92F
:10354400C8B988B9C8B988B9C8B988B9C8B9D8B91F
:10355400C8B988B9C8B988B9C8B988B9C8B9D8B90F
:10356400C8B988B9C8B988B9C8B988B9C8B9D8B9FF
:10357400C8B988B9C8B988B9C8B988B9C8B9D8B9EF
:10358400C8B988B9C8B988B9C8B988B9C8B9D8B9DF
:10359400C8B988B9C8B988B9C8B988B9C8B9D8B9CF
:1035A400C8B988B9C8B988B9C8B988B9C8B9D8B9BF
:1035B400C8B988B9C8B988B9C8B988B9C8B9D8B9AF
:1035C400C8B988B9C8B988B9C8B988B9C8B9D8B99F
:1035D400C8B988B9C8B988B9C8B988B9C8B9D8B98F
:1035E400C8B988B9C8B988B9C8B988B9C8B9D8B97F
:1035F400C8B988B9C8B988B9C8B988B9C8B9D8B96F
:10360400C8B988B9C8B988B9C8B988B9C8B9D8B95E
:10361400C8B988B9C8B988B9C8B988B9C8B9D8B94E
:10362400C8B988B9C8B988B9C8B988B9C8B9D8B93E
:10363400C8B988B9C8B988B9C8B988B9C8B9D8B92E
:10364400C8B988B9C8B988B9C8B988B9C8B9D8B91E
:10365400C8B988B9C8B988B9C8B988B9C8B9D8B90E
:10366400C8B988B9C8B988B9C8B988B9C8B9D8B9FE
:10367400C8B988B9C8B988B9C8B988B9C8B9D8B9EE
:10368400C8B988B9C8B988B9C8B988B9C8B9D8B9DE
:10369400C8B988B9C8B988B9C8B988B9C8B9D8B9CE
:1036A400C8B988B9C8B988B9C8B988B9C8B9D8B9BE
:1036B400C8B988B9C8B988B9C8B988B9C8B9D8B9AE
:1036C400C8B988B9C8B988B9C8B988B9C8B9D8B99E
:1036D400C8B988B9C8B988B9C8B988B9C8B9D8B98E
:1036E400C8B988B9C8B988B9C8B988B9C8B9D8B97E
:1036F400C8B988B9C8B988B9C8B988B9C8B9D8B96E
:10370400C8B988B9C8B988B9C8B988B9C8B9D8B95D
:10371400C8B988B9C8B988B9C8B988B9C8B9D8B94D
:10372400C8B988B9C8B988B9C8B988B9C8B9D8B93D
:10373400C8B988B9C8B988B9C8B988B9C8B9D8B92D
:10374400C8B988B9C8B988B9C8B988B9C8B9D8B91D
:10375400C8B988B9C8B988B9C8B988B9C8B9D8B90D
:10376400C8B988B9C8B988B9C8B988B9C8B9D8B9FD
:10377400C8B988B9C8B988B9C8B988B9C8B9D8B9ED
:10378400C8B988B9C8B988B9C8B988B9C8B9D8B9DD
:10379400C8B988B9C8B988B9C8B988B9C8B9D8B9CD
:1037A400C8B988B9C8B988B9C8B988B9C8B9D8B9BD
:1037B400C8B988B9C8B988B9C8B988B9C8B9D8B9AD
:1037C400C8B988B9C8B988B9C8B988B9C8B9D8B99D
:1037D400C8B988B9C8B988B9C8B988B9C8B9D8B98D
:1037E400C8B988B9C8B988B9C8B988B9C8B9D8B97D
:1037F400C8B988B9C8B988B9C8B988B9C8B9D8B96D
:10380400C8B988B9C8B988B9C8B988B9C8B9D8B95C
:10381400C8B988B9C8B988B9C8B988B9C8B9D8B94C
:10382400C8B988B9C8B988B9C8B988B9C8B9D8B93C
:10383400C8B988B9C8B988B9C8B988B9C8B9D8B92C
:10384400C8B988B9C8B988B9C8B988B9C8B9D8B91C
:10385400C8B988B9C8B988B9C8B988B9C8B9D8B90C
:10386400C8B988B9C8B988B9C8B988B9C8B9D8B9FC
:10387400C8B988B9C8B988B9C8B988B9C8B9D8B9EC
:10388400C8B988B9C8B988B9C8B988B9C8B9D8B9DC
:10389400C8B988B9C8B988B9C8B988B9C8B9D8B9CC
:1038A400C8B988B9C8B988B9C8B988B9C8B9D8B9BC
:1038B400C8B988B9C8B988B9C8B988B9C8B9D8B9AC
:1038C400C8B988B9C8B988B9C8B988B9C8B9D8B99C
:1038D400C8B988B9C8B988B9C8B988B9C8B9D8B98C
:1038E400C8B988B9C8B988B9C8B988B9C8B9D8B97C
:1038F400C8B988B9C8B988B9C8B988B9C8B9D8B96C
:10390400C8B988B9C8B988B9C8B988B9C8B9D8B95B
:10391400C8B988B9C8B988B9C8B988B9C8B9D8B94B
:10392400C8B988B9C8B988B9C8B988B9C8B9D8B93B
:10393400C8B988B9C8B988B9C8B988B9C8B9D8B92B
:10394400C8B988B9C8B988B9C8B988B9C8B9D8B91B
:10395400C8B988B9C8B988B9C8B988B9C8B9D8B90B
:10396400C8B988B9C8B988B9C8B988B9C8B9D8B9FB
:10397400C8B988B9C8B988B9C8B988B9C8B9D8B9EB
:10398400C8B988B9C8B988B9C8B988B9C8B9D8B9DB
:10399400C8B988B9C8B988B9C8B988B9C8B9D8B9CB
:1039A400C8B988B9C8B988B9C8B988B9C8B9D8B9BB
:1039B400C8B988B9C8B988B9C8B988B9C8B9D8B9AB
:1039C400C8B988B9C8B988B9C8B988B9C8B9D8B99B
:1039D400C8B988B9C8B988B9C8B988B9C8B9D8B98B
:1039E400C8B988B9C8B988B9C8B988B9C8B9D8B97B
:1039F400C8B988B9C8B988B9C8B988B9C8B9D8B96B
:103A0400C8B988B9C8B988B9C8B988B9C8B9D8B95A
:103A1400C8B988B9C8B988B9C8B988B9C8B9D8B94A
:103A2400C8B988B9C8B988B9C8B988B9C8B9D8B93A
:103A3400C8B988B9C8B988B9C8B988B9C8B9D8B92A
:103A4400C8B988B9C8B988B9C8B988B9C8B9D8B91A
:103A5400C8B988B9C8B988B9C8B988B9C8B9D8B90A
:103A6400C8B988B9C8B988B9C8B988B9C8B9D8B9FA
:103A7400C8B988B9C8B988B9C8B988B9C8B9D8B9EA
:103A8400C8B988B9C8B988B9C8B988B9C8B9D8B9DA
:103A9400C8B988B9C8B988B9C8B988B9C8B9D8B9CA
:103AA400C8B988B9C8B988B9C8B988B9C8B9D8B9BA
:103AB400C8B988B9C8B988B9C8B988B9C8B9D8B9AA
:103AC400C8B988B9C8B988B9C8B988B9C8B9D8B99A
:103AD400C8B988B9C8B988B9C8B988B9C8B9D8B98A
:103AE400C8B988B9C8B988B9C8B988B9C8B9D8B97A
:103AF400C8B988B9C8B988B9C8B988B9C8B9D8B96A
:103B0400C8B988B9C8B988B9C8B988B9C8B9D8B959
:103B1400C8B988B9C8B988B9C8B988B9C8B9D8B949
:103B2400C8B988B9C8B988B9C8B988B9C8B9D8B939
:103B3400C8B988B9C8B988B9C8B988B9C8B9D8B929
:103B4400C8B988B9C8B988B9C8B988B9C8B9D8B919
:103B5400C8B988B9C8B988B9C8B988B9C8B9D8B909
:103B6400C8B988B9C8B988B9C8B988B9C8B9D8B9F9
:103B7400C8B988B9C8B988B9C8B988B9C8B9D8B9E9
:103B8400C8B988B9C8B988B9C8B988B9C8B9D8B9D9
:103B9400C8B988B9C8B988B9C8B988B9C8B9D8B9C9
:103BA400C8B988B9C8B988B9C8B988B9C8B9D8B9B9
:103BB400C8B988B9C8B988B9C8B988B9C8B9D8B9A9
:103BC400C8B988B9C8B988B9C8B988B9C8B9D8B999
:103BD400C8B988B9C8B988B9C8B988B9C8B9D8B989
:103BE400C8B988B9C8B988B9C8B988B9C8B9D8B979
:103BF400C8B988B9C8B988B9C8B988B9C8B9D8B969
:103C0400C8B988B9C8B988B9C8B988B9C8B9D8B958
:103C1400C8B988B9C8B988B9C8B988B9C8B9D8B948
:103C2400C8B988B9C8B988B9C8B988B9C8B9D8B938
:103C3400C8B988B9C8B988B9C8B988B9C8B9D8B928
:103C4400C8B988B9C8B988B9C8B988B9C8B9D8B918
:103C5400C8B988B9C8B988B9C8B988B9C8B9D8B908
:103C6400C8B988B9C8B988B9C8B988B9C8B9D8B9F8
:103C7400C8B988B9C8B988B9C8B988B9C8B9D8B9E8
:103C8400C8B988B9C8B988B9C8B988B9C8B9D8B9D8
:103C9400C8B988B9C8B988B9C8B988B9C8B9D8B9C8
:103CA400C8B988B9C8B988B9C8B988B9C8B9D8B9B8
:103CB400C8B988B9C8B988B9C8B988B9C8B9D8B9A8
:103CC400C8B988B9C8B988B9C8B988B9C8B9D8B998
:103CD400C8B988B9C8B988B9C8B988B9C8B9D8B988
:103CE400C8B988B9C8B988B9C8B988B9C8B9D8B978
:103CF400C8B988B9C8B988B9C8B988B9C8B9D8B968
:103D0400C8B988B9C8B988B9C8B988B9C8B9D8B957
:103D1400C8B988B9C8B988B9C8B988B9C8B9D8B947
:103D2400C8B988B9C8B988B9C8B988B9C8B9D8B937
:103D3400C8B988B9C8B988B9C8B988B9C8B9D8B927
:103D4400C8B988B9C8B988B9C8B988B9C8B9D8B917
:103D5400C8B988B9C8B988B9C8B988B9C8B9D8B907
:103D6400C8B988B9C8B988B9C8B988B9C8B9D8B9F7
:103D7400C8B988B9C8B988B9C8B988B9C8B9D8B9E7
:103D8400C8B988B9C8B988B9C8B988B9C8B9D8B9D7
:103D9400C8B988B9C8B988B9C8B988B9C8B9D8B9C7
:103DA400C8B988B9C8B988B9C8B988B9C8B9D8B9B7
:103DB400C8B988B9C8B988B9C8B988B9C8B9D8B9A7
:103DC400C8B988B9C8B988B9C8B988B9C8B9D8B997
:103DD400C8B988B9C8B988B9C8B988B9C8B9D8B987
:103DE400C8B988B9C8B988B9C8B988B9C8B9D8B977
:103DF400C8B988B9C8B988B9C8B988B9C8B9D8B967
:103E0400C8B988B9C8B988B9C8B988B9C8B9D8B956
:103E1400C8B988B9C8B988B9C8B988B9C8B9D8B946
:103E2400C8B988B9C8B988B9C8B988B9C8B9D8B936
:103E3400C8B988B9C8B988B9C8B988B9C8B9D8B926
:103E4400C8B988B9C8B988B9C8B988B9C8B9D8B916
:103E5400C8B988B9C8B988B9C8B988B9C8B9D8B906
:103E6400C8B988B9C8B988B9C8B988B9C8B9D8B9F6
:103E7400C8B988B9C8B988B9C8B988B9C8B9D8B9E6
:103E8400C8B988B9C8B988B9C8B988B9C8B9D8B9D6
:103E9400C8B988B9C8B988B9C8B988B9C8B9D8B9C6
:103EA400C8B988B9C8B988B9C8B988B9C8B9D8B9B6
:103EB400C8B988B9C8B988B9C8B988B9C8B9D8B9A6
:103EC400C8B988B9C8B988B9C8B988B9C8B9D8B996
:103ED400C8B988B9C8B988B9C8B988B9C8B9D8B986
:103EE400C8B988B9C8B988B9C8B988B9C8B9D8B976
:103EF400C8B988B9C8B988B9C8B988B9C8B9D8B966
:103F0400C8B988B9C8B988B9C8B988B9C8B9D8B955
:103F1400C8B988B9C8B988B9C8B988B9C8B9D8B945
:103F2400C8B988B9C8B988B9C8B988B9C8B9D8B935
:103F3400C8B988B9C8B988B9C8B988B9C8B9D8B925
:103F4400C8B988B9C8B988B9C8B988B9C8B9D8B915
:103F5400C8B988B9C8B988B9C8B988B9C8B9D8B905
:103F6400C8B988B9C8B988B9C8B988B9C8B9D8B9F5
:103F7400C8B988B9C8B988B9C8B988B9C8B9D8B9E5
:103F8400C8B988B9C8B988B9C8B988B9C8B9D8B9D5
:103F9400C8B988B9C8B988B9C8B988B9C8B9D8B9C5
:103FA400C8B988B9C8B988B9C8B988B9C8B9D8B9B5
:103FB400C8B988B9C8B988B9C8B988B9C8B9D8B9A5
:103FC400C8B988B9C8B988B9C8B988B9C8B9D8B995
:103FD400C8B988B9C8B988B9C8B988B9C8B9D8B985
:103FE400C8B988B9C8B988B9C8B988B9C8B9D8B975
:103FF400C8B988B9C8B988B9C8B988B9C8B9D8B965
:10400400C8B988B9C8B988B9C8B988B9C8B9D8B954
:10401400C8B988B9C8B988B9C8B988B9C8B9D8B944
:10402400C8B988B9C8B988B9C8B988B9C8B9D8B934
:10403400C8B988B9C8B988B9C8B988B9C8B9D8B924
:10404400C8B988B9C8B988B9C8B988B9C8B9D8B914
:10405400C8B988B9C8B988B9C8B988B9C8B9D8B904
:10406400C8B988B9C8B988B9C8B988B9C8B9D8B9F4
:10407400C8B988B9C8B988B9C8B988B9C8B9D8B9E4
:10408400C8B988B9C8B988B9C8B988B9C8B9D8B9D4
:10409400C8B988B9C8B988B9C8B988B9C8B9D8B9C4
:1040A400C8B988B9C8B988B9C8B988B9C8B9D8B9B4
:1040B400C8B988B9C8B988B9C8B988B9C8B9D8B9A4
:1040C400C8B988B9C8B988B9C8B988B9C8B9D8B994
:1040D400C8B988B9C8B988B9C8B988B9C8B9D8B984
:1040E400C8B988B9C8B988B9C8B988B9C8B9D8B974
:1040F400C8B988B9C8B988B9C8B988B9C8B9D8B964
:10410400C8B988B9C8B988B9C8B988B9C8B9D8B953
:10411400C8B988B9C8B988B9C8B988B9C8B9D8B943
:10412400C8B988B9C8B988B9C8B988B9C8B9D8B933
:10413400C8B988B9C8B988B9C8B988B9C8B9D8B923
:10414400C8B988B9C8B988B9C8B988B9C8B9D8B913
:10415400C8B988B9C8B988B9C8B988B9C8B9D8B903
:10416400C8B988B9C8B988B9C8B988B9C8B9D8B9F3
:10417400C8B988B9C8B988B9C8B988B9C8B9D8B9E3
:10418400C8B988B9C8B988B9C8B988B9C8B9D8B9D3
:10419400C8B988B9C8B988B9C8B988B9C8B9D8B9C3
:1041A400C8B988B9C8B988B9C8B988B9C8B9D8B9B3
:1041B400C8B988B9C8B988B9C8B988B9C8B9D8B9A3
:1041C400C8B988B9C8B988B9C8B988B9C8B9D8B993
:1041D400C8B988B9C8B988B9C8B988B9C8B9D8B983
:1041E400C8B988B9C8B988B9C8B988B9C8B9D8B973
:1041F400C8B988B9C8B988B9C8B988B9C8B9D8B963
:10420400C8B988B9C8B988B9C8B988B9C8B9D8B952
:10421400C8B988B9C8B988B9C8B988B9C8B9D8B942
:10422400C8B988B9C8B988B9C8B988B9C8B9D8B932
:10423400C8B988B9C8B988B9C8B988B9C8B9D8B922
:10424400C8B988B9C8B988B9C8B988B9C8B9D8B912
:10425400C8B988B9C8B988B9C8B988B9C8B9D8B902
:10426400C8B988B9C8B988B9C8B988B9C8B9D8B9F2
:10427400C8B988B9C8B988B9C8B988B9C8B9D8B9E2
:10428400C8B988B9C8B988B9C8B988B9C8B9D8B9D2
:10429400C8B988B9C8B988B9C8B988B9C8B9D8B9C2
:1042A400C8B988B9C8B988B9C8B988B9C8B9D8B9B2
:1042B400C8B988B9C8B988B9C8B988B9C8B9D8B9A2
:1042C400C8B988B9C8B988B9C8B988B9C8B9D8B992
:1042D400C8B988B9C8B988B9C8B988B9C8B9D8B982
:1042E400C8B988B9C8B988B9C8B988B9C8B9D8B972
:1042F400C8B988B9C8B988B9C8B988B9C8B9D8B962
:10430400C8B988B9C8B988B9C8B988B9C8B9D8B951
:10431400C8B988B9C8B988B9C8B988B9C8B9D8B941
:10432400C8B988B9C8B988B9C8B988B9C8B9D8B931
:10433400C8B988B9C8B988B9C8B988B9C8B9D8B921
:10434400C8B988B9C8B988B9C8B988B9C8B9D8B911
:10435400C8B988B9C8B988B9C8B988B9C8B9D8B901
:10436400C8B988B9C8B988B9C8B988B9C8B9D8B9F1
:10437400C8B988B9C8B988B9C8B988B9C8B9D8B9E1
:10438400C8B988B9C8B988B9C8B988B9C8B9D8B9D1
:10439400C8B988B9C8B988B9C8B988B9C8B9D8B9C1
:1043A400C8B988B9C8B988B9C8B988B9C8B9D8B9B1
:1043B400C8B988B9C8B988B9C8B988B9C8B9D8B9A1
:1043C400C8B988B9C8B988B9C8B988B9C8B9D8B991
:1043D400C8B988B9C8B988B9C8B988B9C8B9D8B981
:1043E400C8B988B9C8B988B9C8B988B9C8B9D8B971
:1043F400C8B988B9C8B988B9C8B988B9C8B9D8B961
:10440400C8B988B9C8B988B9C8B988B9C8B9D8B950
:10441400C8B988B9C8B988B9C8B988B9C8B9D8B940
:10442400C8B988B9C8B988B9C8B988B9C8B9D8B930
:10443400C8B988B9C8B988B9C8B988B9C8B9D8B920
:10444400C8B988B9C8B988B9C8B988B9C8B9D8B910
:10445400C8B988B9C8B988B9C8B988B9C8B9D8B900
:10446400C8B988B9C8B988B9C8B988B9C8B9D8B9F0
:10447400C8B988B9C8B988B9C8B988B9C8B9D8B9E0
:10448400C8B988B9C8B988B9C8B988B9C8B9D8B9D0
:10449400C8B988B9C8B988B9C8B988B9C8B9D8B9C0
:1044A400C8B988B9C8B988B9C8B988B9C8B9D8B9B0
:1044B400C8B988B9C8B988B9C8B988B9C8B9D8B9A0
:1044C400C8B988B9C8B988B9C8B988B9C8B9D8B990
:1044D400C8B988B9C8B988B9C8B988B9C8B9D8B980
:1044E400C8B988B9C8B988B9C8B988B9C8B9D8B970
:1044F400C8B988B9C8B988B9C8B988B9C8B9D8B960
:10450400C8B988B9C8B988B9C8B988B9C8B9D8B94F
:10451400C8B988B9C8B988B9C8B988B9C8B9D8B93F
:10452400C8B988B9C8B988B9C8B988B9C8B9D8B92F
:10453400C8B988B9C8B988B9C8B988B9C8B9D8B91F
:10454400C8B988B9C8B988B9C8B988B9C8B9D8B90F
:10455400C8B988B9C8B988B9C8B988B9C8B9D8B9FF
:10456400C8B988B9C8B988B9C8B988B9C8B9D8B9EF
:10457400C8B988B9C8B988B9C8B988B9C8B9D8B9DF
:10458400C8B988B9C8B988B9C8B988B9C8B9D8B9CF
:10459400C8B988B9C8B988B9C8B988B9C8B9D8B9BF
:1045A400C8B988B9C8B988B9C8B988B9C8B9D8B9AF
:1045B400C8B988B9C8B988B9C8B988B9C8B9D8B99F
:1045C400C8B988B9C8B988B9C8B988B9C8B9D8B98F
:1045D400C8B988B9C8B988B9C8B988B9C8B9D8B97F
:1045E400C8B988B9C8B988B9C8B988B9C8B9D8B96F
:1045F400C8B988B9C8B988B9C8B988B9C8B9D8B95F
:10460400C8B988B9C8B988B9C8B988B9C8B9D8B94E
:10461400C8B988B9C8B988B9C8B988B9C8B9D8B93E
:10462400C8B988B9C8B988B9C8B988B9C8B9D8B92E
:10463400C8B988B9C8B988B9C8B988B9C8B9D8B91E
:10464400C8B988B9C8B988B9C8B988B9C8B9D8B90E
:10465400C8B988B9C8B988B9C8B988B9C8B9D8B9FE
:10466400C8B988B9C8B988B9C8B988B9C8B9D8B9EE
:10467400C8B988B9C8B988B9C8B988B9C8B9D8B9DE
:10468400C8B988B9C8B988B9C8B988B9C8B9D8B9CE
:10469400C8B988B9C8B988B9C8B988B9C8B9D8B9BE
:1046A400C8B988B9C8B988B9C8B988B9C8B9D8B9AE
:1046B400C8B988B9C8B988B9C8B988B9C8B9D8B99E
:1046C400C8B988B9C8B988B9C8B988B9C8B9D8B98E
:1046D400C8B988B9C8B988B9C8B988B9C8B9D8B97E
:1046E400C8B988B9C8B988B9C8B988B9C8B9D8B96E
:1046F400C8B988B9C8B988B9C8B988B9C8B9D8B95E
:10470400C8B988B9C8B988B9C8B988B9C8B9D8B94D
:10471400C8B988B9C8B988B9C8B988B9C8B9D8B93D
:10472400C8B988B9C8B988B9C8B988B9C8B9D8B92D
:10473400C8B988B9C8B988B9C8B988B9C8B9D8B91D
:10474400C8B988B9C8B988B9C8B988B9C8B9D8B90D
:10475400C8B988B9C8B988B9C8B988B9C8B9D8B9FD
:10476400C8B988B9C8B988B9C8B988B9C8B9D8B9ED
:10477400C8B988B9C8B988B9C8B988B9C8B9D8B9DD
:10478400C8B988B9C8B988B9C8B988B9C8B9D8B9CD
:10479400C8B988B9C8B988B9C8B988B9C8B9D8B9BD
:1047A400C8B988B9C8B988B9C8B988B9C8B9D8B9AD
:1047B400C8B988B9C8B988B9C8B988B9C8B9D8B99D
:1047C400C8B988B9C8B988B9C8B988B9C8B9D8B98D
:1047D400C8B988B9C8B988B9C8B988B9C8B9D8B97D
:1047E400C8B988B9C8B988B9C8B988B9C8B9D8B96D
:1047F400C8B988B9C8B988B9C8B988B9C8B9D8B95D
:10480400C8B988B9C8B988B9C8B988B9C8B9D8B94C
:10481400C8B988B9C8B988B9C8B988B9C8B9D8B93C
:10482400C8B988B9C8B988B9C8B988B9C8B9D8B92C
:10483400C8B988B9C8B988B9C8B988B9C8B9D8B91C
:10484400C8B988B9C8B988B9C8B988B9C8B9D8B90C
:10485400C8B988B9C8B988B9C8B988B9C8B9D8B9FC
:10486400C8B988B9C8B988B9C8B988B9C8B9D8B9EC
:10487400C8B988B9C8B988B9C8B988B9C8B9D8B9DC
:10488400C8B988B9C8B988B9C8B988B9C8B9D8B9CC
:10489400C8B988B9C8B988B9C8B988B9C8B9D8B9BC
:1048A400C8B988B9C8B988B9C8B988B9C8B9D8B9AC
:1048B400C8B988B9C8B988B9C8B988B9C8B9D8B99C
:1048C400C8B988B9C8B988B9C8B988B9C8B9D8B98C
:1048D400C8B988B9C8B988B9C8B988B9C8B9D8B97C
:1048E400C8B988B9C8B988B9C8B988B9C8B9D8B96C
:1048F400C8B988B9C8B988B9C8B988B9C8B9D8B95C
:10490400C8B988B9C8B988B9C8B988B9C8B9D8B94B
:10491400C8B988B9C8B988B9C8B988B9C8B9D8B93B
:10492400C8B988B9C8B988B9C8B988B9C8B9D8B92B
:10493400C8B988B9C8B988B9C8B988B9C8B9D8B91B
:10494400C8B988B9C8B988B9C8B988B9C8B9D8B90B
:10495400C8B988B9C8B988B9C8B988B9C8B9D8B9FB
:10496400C8B988B9C8B988B9C8B988B9C8B9D8B9EB
:10497400C8B988B9C8B988B9C8B988B9C8B9D8B9DB
:10498400C8B988B9C8B988B9C8B988B9C8B9D8B9CB
:10499400C8B988B9C8B988B9C8B988B9C8B9D8B9BB
:1049A400C8B988B9C8B988B9C8B988B9C8B9D8B9AB
:1049B400C8B988B9C8B988B9C8B988B9C8B9D8B99B
:1049C400C8B988B9C8B988B9C8B988B9C8B9D8B98B
:1049D400C8B988B9C8B988B9C8B988B9C8B9D8B97B
:1049E400C8B988B9C8B988B9C8B988B9C8B9D8B96B
:1049F400C8B988B9C8B988B9C8B988B9C8B9D8B95B
:104A0400C8B988B9C8B988B9C8B988B9C8B9D8B94A
:104A1400C8B988B9C8B988B9C8B988B9C8B9D8B93A
:104A2400C8B988B9C8B988B9C8B988B9C8B9D8B92A
:104A3400C8B988B9C8B988B9C8B988B9C8B9D8B91A
:104A4400C8B988B9C8B988B9C8B988B9C8B9D8B90A
:104A5400C8B988B9C8B988B9C8B988B9C8B9D8B9FA
:104A6400C8B988B9C8B988B9C8B988B9C8B9D8B9EA
:104A7400C8B988B9C8B988B9C8B988B9C8B9D8B9DA
:104A8400C8B988B9C8B988B9C8B988B9C8B9D8B9CA
:104A9400C8B988B9C8B988B9C8B988B9C8B9D8B9BA
:104AA400C8B988B9C8B988B9C8B988B9C8B9D8B9AA
:104AB400C8B988B9C8B988B9C8B988B9C8B9D8B99A
:104AC400C8B988B9C8B988B9C8B988B9C8B9D8B98A
:104AD400C8B988B9C8B988B9C8B988B9C8B9D8B97A
:104AE400C8B988B9C8B988B9C8B988B9C8B9D8B96A
:104AF400C8B988B9C8B988B9C8B988B9C8B9D8B95A
:104B0400C8B988B9C8B988B9C8B988B9C8B9D8B949
:104B1400C8B988B9C8B988B9C8B988B9C8B9D8B939
:104B2400C8B988B9C8B988B9C8B988B9C8B9D8B929
:104B3400C8B988B9C8B988B9C8B988B9C8B9D8B919
:104B4400C8B988B9C8B988B9C8B988B9C8B9D8B909
:104B5400C8B988B9C8B988B9C8B988B9C8B9D8B9F9
:104B6400C8B988B9C8B988B9C8B988B9C8B9D8B9E9
:104B7400C8B988B9C8B988B9C8B988B9C8B9D8B9D9
:104B8400C8B988B9C8B988B9C8B988B9C8B9D8B9C9
:104B9400C8B988B9C8B988B9C8B988B9C8B9D8B9B9
:104BA400C8B988B9C8B988B9C8B988B9C8B9D8B9A9
:104BB400C8B988B9C8B988B9C8B988B9C8B9D8B999
:104BC400C8B988B9C8B988B9C8B988B9C8B9D8B989
:104BD400C8B988B9C8B988B9C8B988B9C8B9D8B979
:104BE400C8B988B9C8B988B9C8B988B9C8B9D8B969
:104BF400C8B988B9C8B988B9C8B988B9C8B9D8B959
:104C0400C8B988B9C8B988B9C8B988B9C8B9D8B948
:104C1400C8B988B9C8B988B9C8B988B9C8B9D8B938
:104C2400C8B988B9C8B988B9C8B988B9C8B9D8B928
:104C3400C8B988B9C8B988B9C8B988B9C8B9D8B918
:104C4400C8B988B9C8B988B9C8B988B9C8B9D8B908
:104C5400C8B988B9C8B988B9C8B988B9C8B9D8B9F8
:104C6400C8B988B9C8B988B9C8B988B9C8B9D8B9E8
:104C7400C8B988B9C8B988B9C8B988B9C8B9D8B9D8
:104C8400C8B988B9C8B988B9C8B988B9C8B9D8B9C8
:104C9400C8B988B9C8B988B9C8B988B9C8B9D8B9B8
:104CA400C8B988B9C8B988B9C8B988B9C8B9D8B9A8
:104CB400C8B988B9C8B988B9C8B988B9C8B9D8B998
:104CC400C8B988B9C8B988B9C8B988B9C8B9D8B988
:104CD400C8B988B9C8B988B9C8B988B9C8B9D8B978
:104CE400C8B988B9C8B988B9C8B988B9C8B9D8B968
:104CF400C8B988B9C8B988B9C8B988B9C8B9D8B958
:104D0400C8B988B9C8B988B9C8B988B9C8B9D8B947
:104D1400C8B988B9C8B988B9C8B988B9C8B9D8B937
:104D2400C8B988B9C8B988B9C8B988B9C8B9D8B927
:104D3400C8B988B9C8B988B9C8B988B9C8B9D8B917
:104D4400C8B988B9C8B988B9C8B988B9C8B9D8B907
:104D5400C8B988B9C8B988B9C8B988B9C8B9D8B9F7
:104D6400C8B988B9C8B988B9C8B988B9C8B9D8B9E7
:104D7400C8B988B9C8B988B9C8B988B9C8B9D8B9D7
:104D8400C8B988B9C8B988B9C8B988B9C8B9D8B9C7
:104D9400C8B988B9C8B988B9C8B988B9C8B9D8B9B7
:104DA400C8B988B9C8B988B9C8B988B9C8B9D8B9A7
:104DB400C8B988B9C8B988B9C8B988B9C8B9D8B997
:104DC400C8B988B9C8B988B9C8B988B9C8B9D8B987
:104DD400C8B988B9C8B988B9C8B988B9C8B9D8B977
:104DE400C8B988B9C8B988B9C8B988B9C8B9D8B967
:104DF400C8B988B9C8B988B9C8B988B9C8B9D8B957
:104E0400C8B988B9C8B988B9C8B988B9C8B9D8B946
:104E1400C8B988B9C8B988B9C8B988B9C8B9D8B936
:104E2400C8B988B9C8B988B9C8B988B9C8B9D8B926
:104E3400C8B988B9C8B988B9C8B988B9C8B9D8B916
:104E4400C8B988B9C8B988B9C8B988B9C8B9D8B906
:104E5400C8B988B9C8B988B9C8B988B9C8B9D8B9F6
:104E6400C8B988B9C8B988B9C8B988B9C8B9D8B9E6
:104E7400C8B988B9C8B988B9C8B988B9C8B9D8B9D6
:104E8400C8B988B9C8B988B9C8B988B9C8B9D8B9C6
:104E9400C8B988B9C8B988B9C8B988B9C8B9D8B9B6
:104EA400C8B988B9C8B988B9C8B988B9C8B9D8B9A6
:104EB400C8B988B9C8B988B9C8B988B9C8B9D8B996
:104EC400C8B988B9C8B988B9C8B988B9C8B9D8B986
:104ED400C8B988B9C8B988B9C8B988B9C8B9D8B976
:104EE400C8B988B9C8B988B9C8B988B9C8B9D8B966
:104EF400C8B988B9C8B988B9C8B988B9C8B9D8B956
:104F0400C8B988B9C8B988B9C8B988B9C8B9D8B945
:104F1400C8B988B9C8B988B9C8B988B9C8B9D8B935
:104F2400C8B988B9C8B988B9C8B988B9C8B9D8B925
:104F3400C8B988B9C8B988B9C8B988B9C8B9D8B915
:104F4400C8B988B9C8B988B9C8B988B9C8B9D8B905
:104F5400C8B988B9C8B988B9C8B988B9C8B9D8B9F5
:104F6400C8B988B9C8B988B9C8B988B9C8B9D8B9E5
:104F7400C8B988B9C8B988B9C8B988B9C8B9D8B9D5
:104F8400C8B988B9C8B988B9C8B988B9C8B9D8B9C5
:104F9400C8B988B9C8B988B9C8B988B9C8B9D8B9B5
:104FA400C8B988B9C8B988B9C8B988B9C8B9D8B9A5
:104FB400C8B988B9C8B988B9C8B988B9C8B9D8B995
:104FC400C8B988B9C8B988B9C8B988B9C8B9D8B985
:104FD400C8B988B9C8B988B9C8B988B9C8B9D8B975
:104FE400C8B988B9C8B988B9C8B988B9C8B9D8B965
:104FF400C8B988B9C8B988B9C8B988B9C8B9D8B955
:10500400C8B988B9C8B988B9C8B988B9C8B9D8B944
:10501400C8B988B9C8B988B9C8B988B9C8B9D8B934
:10502400C8B988B9C8B988B9C8B988B9C8B9D8B924
:10503400C8B988B9C8B988B9C8B988B9C8B9D8B914
:10504400C8B988B9C8B988B9C8B988B9C8B9D8B904
:10505400C8B988B9C8B988B9C8B988B9C8B9D8B9F4
:10506400C8B988B9C8B988B9C8B988B9C8B9D8B9E4
:10507400C8B988B9C8B988B9C8B988B9C8B9D8B9D4
:10508400C8B988B9C8B988B9C8B988B9C8B9D8B9C4
:10509400C8B988B9C8B988B9C8B988B9C8B9D8B9B4
:1050A400C8B988B9C8B988B9C8B988B9C8B9D8B9A4
:1050B400C8B988B9C8B988B9C8B988B9C8B9D8B994
:1050C400C8B988B9C8B988B9C8B988B9C8B9D8B984
:1050D400C8B988B9C8B988B9C8B988B9C8B9D8B974
:1050E400C8B988B9C8B988B9C8B988B9C8B9D8B964
:1050F400C8B988B9C8B988B9C8B988B9C8B9D8B954
:10510400C8B988B9C8B988B9C8B988B9C8B9D8B943
:10511400C8B988B9C8B988B9C8B988B9C8B9D8B933
:10512400C8B988B9C8B988B9C8B988B9C8B9D8B923
:10513400C8B988B9C8B988B9C8B988B9C8B9D8B913
:10514400C8B988B9C8B988B9C8B988B9C8B9D8B903
:10515400C8B988B9C8B988B9C8B988B9C8B9D8B9F3
:10516400C8B988B9C8B988B9C8B988B9C8B9D8B9E3
:10517400C8B988B9C8B988B9C8B988B9C8B9D8B9D3
:10518400C8B988B9C8B988B9C8B988B9C8B9D8B9C3
:10519400C8B988B9C8B988B9C8B988B9C8B9D8B9B3
:1051A400C8B988B9C8B988B9C8B988B9C8B9D8B9A3
:1051B400C8B988B9C8B988B9C8B988B9C8B9D8B993
:1051C400C8B988B9C8B988B9C8B988B9C8B9D8B983
:1051D400C8B988B9C8B988B9C8B988B9C8B9D8B973
:1051E400C8B988B9C8B988B9C8B988B9C8B9D8B963
:1051F400C8B988B9C8B988B9C8B988B9C8B9D8B953
:10520400C8B988B9C8B988B9C8B988B9C8B9D8B942
:10521400C8B988B9C8B988B9C8B988B9C8B9D8B932
:10522400C8B988B9C8B988B9C8B988B9C8B9D8B922
:10523400C8B988B9C8B988B9C8B988B9C8B9D8B912
:10524400C8B988B9C8B988B9C8B988B9C8B9D8B902
:10525400C8B988B9C8B988B9C8B988B9C8B9D8B9F2
:10526400C8B988B9C8B988B9C8B988B9C8B9D8B9E2
:10527400C8B988B9C8B988B9C8B988B9C8B9D8B9D2
:10528400C8B988B9C8B988B9C8B988B9C8B9D8B9C2
:10529400C8B988B9C8B988B9C8B988B9C8B9D8B9B2
:1052A400C8B988B9C8B988B9C8B988B9C8B9D8B9A2
:1052B400C8B988B9C8B988B9C8B988B9C8B9D8B992
:1052C400C8B988B9C8B988B9C8B988B9C8B9D8B982
:1052D400C8B988B9C8B988B9C8B988B9C8B9D8B972
:1052E400C8B988B9C8B988B9C8B988B9C8B9D8B962
:1052F400C8B988B9C8B988B9C8B988B9C8B9D8B952
:10530400C8B988B9C8B988B9C8B988B9C8B9D8B941
:10531400C8B988B9C8B988B9C8B988B9C8B9D8B931
:10532400C8B988B9C8B988B9C8B988B9C8B9D8B921
:10533400C8B988B9C8B988B9C8B988B9C8B9D8B911
:10534400C8B988B9C8B988B9C8B988B9C8B9D8B901
:10535400C8B988B9C8B988B9C8B988B9C8B9D8B9F1
:10536400C8B988B9C8B988B9C8B988B9C8B9D8B9E1
:10537400C8B988B9C8B988B9C8B988B9C8B9D8B9D1
:10538400C8B988B9C8B988B9C8B988B9C8B9D8B9C1
:10539400C8B988B9C8B988B9C8B988B9C8B9D8B9B1
:1053A400C8B988B9C8B988B9C8B988B9C8B9D8B9A1
:1053B400C8B988B9C8B988B9C8B988B9C8B9D8B991
:1053C400C8B988B9C8B988B9C8B988B9C8B9D8B981
:1053D400C8B988B9C8B988B9C8B988B9C8B9D8B971
:1053E400C8B988B9C8B988B9C8B988B9C8B9D8B961
:1053F400C8B988B9C8B988B9C8B988B9C8B9D8B951
:10540400C8B988B9C8B988B9C8B988B9C8B9D8B940
:10541400C8B988B9C8B988B9C8B988B9C8B9D8B930
:10542400C8B988B9C8B988B9C8B988B9C8B9D8B920
:10543400C8B988B9C8B988B9C8B988B9C8B9D8B910
:10544400C8B988B9C8B988B9C8B988B9C8B9D8B900
:10545400C8B988B9C8B988B9C8B988B9C8B9D8B9F0
:10546400C8B988B9C8B988B9C8B988B9C8B9D8B9E0
:10547400C8B988B9C8B988B9C8B988B9C8B9D8B9D0
:10548400C8B988B9C8B988B9C8B988B9C8B9D8B9C0
:10549400C8B988B9C8B988B9C8B988B9C8B9D8B9B0
:1054A400C8B988B9C8B988B9C8B988B9C8B9D8B9A0
:1054B400C8B988B9C8B988B9C8B988B9C8B9D8B990
:1054C400C8B988B9C8B988B9C8B988B9C8B9D8B980
:1054D400C8B988B9C8B988B9C8B988B9C8B9D8B970
:1054E400C8B988B9C8B988B9C8B988B9C8B9D8B960
:1054F400C8B988B9C8B988B9C8B988B9C8B9D8B950
:10550400C8B988B9C8B988B9C8B988B9C8B9D8B93F
:10551400C8B988B9C8B988B9C8B988B9C8B9D8B92F
:10552400C8B988B9C8B988B9C8B988B9C8B9D8B91F
:10553400C8B988B9C8B988B9C8B988B9C8B9D8B90F
:10554400C8B988B9C8B988B9C8B988B9C8B9D8B9FF
:10555400C8B988B9C8B988B9C8B988B9C8B9D8B9EF
:10556400C8B988B9C8B988B9C8B988B9C8B9D8B9DF
:10557400C8B988B9C8B988B9C8B988B9C8B9D8B9CF
:10558400C8B988B9C8B988B9C8B988B9C8B9D8B9BF
:10559400C8B988B9C8B988B9C8B988B9C8B9D8B9AF
:1055A400C8B988B9C8B988B9C8B988B9C8B9D8B99F
:1055B400C8B988B9C8B988B9C8B988B9C8B9D8B98F
:1055C400C8B988B9C8B988B9C8B988B9C8B9D8B97F
:1055D400C8B988B9C8B988B9C8B988B9C8B9D8B96F
:1055E400C8B988B9C8B988B9C8B988B9C8B9D8B95F
:1055F400C8B988B9C8B988B9C8B988B9C8B9D8B94F
:10560400C8B988B9C8B988B9C8B988B9C8B9D8B93E
:10561400C8B988B9C8B988B9C8B988B9C8B9D8B92E
:10562400C8B988B9C8B988B9C8B988B9C8B9D8B91E
:10563400C8B988B9C8B988B9C8B988B9C8B9D8B90E
:10564400C8B988B9C8B988B9C8B988B9C8B9D8B9FE
:10565400C8B988B9C8B988B9C8B988B9C8B9D8B9EE
:10566400C8B988B9C8B988B9C8B988B9C8B9D8B9DE
:10567400C8B988B9C8B988B9C8B988B9C8B9D8B9CE
:10568400C8B988B9C8B988B9C8B988B9C8B9D8B9BE
:10569400C8B988B9C8B988B9C8B988B9C8B9D8B9AE
:1056A400C8B988B9C8B988B9C8B988B9C8B9D8B99E
:1056B400C8B988B9C8B988B9C8B988B9C8B9D8B98E
:1056C400C8B988B9C8B988B9C8B988B9C8B9D8B97E
:1056D400C8B988B9C8B988B9C8B988B9C8B9D8B96E
:1056E400C8B988B9C8B988B9C8B988B9C8B9D8B95E
:1056F400C8B988B9C8B988B9C8B988B9C8B9D8B94E
:10570400C8B988B9C8B988B9C8B988B9C8B9D8B93D
:10571400C8B988B9C8B988B9C8B988B9C8B9D8B92D
:10572400C8B988B9C8B988B9C8B988B9C8B9D8B91D
:10573400C8B988B9C8B988B9C8B988B9C8B9D8B90D
:10574400C8B988B9C8B988B9C8B988B9C8B9D8B9FD
:10575400C8B988B9C8B988B9C8B988B9C8B9D8B9ED
:10576400C8B988B9C8B988B9C8B988B9C8B9D8B9DD
:10577400C8B988B9C8B988B9C8B988B9C8B9D8B9CD
:10578400C8B988B9C8B988B9C8B988B9C8B9D8B9BD
:10579400C8B988B9C8B988B9C8B988B9C8B9D8B9AD
:1057A400C8B988B9C8B988B9C8B988B9C8B9D8B99D
:1057B400C8B988B9C8B988B9C8B988B9C8B9D8B98D
:1057C400C8B988B9C8B988B9C8B988B9C8B9D8B97D
:1057D400C8B988B9C8B988B9C8B988B9C8B9D8B96D
:1057E400C8B988B9C8B988B9C8B988B9C8B9D8B95D
:1057F400C8B988B9C8B988B9C8B988B9C8B9D8B94D
:10580400C8B988B9C8B988B9C8B988B9C8B9D8B93C
:10581400C8B988B9C8B988B9C8B988B9C8B9D8B92C
:10582400C8B988B9C8B988B9C8B988B9C8B9D8B91C
:10583400C8B988B9C8B988B9C8B988B9C8B9D8B90C
:10584400C8B988B9C8B988B9C8B988B9C8B9D8B9FC
:10585400C8B988B9C8B988B9C8B988B9C8B9D8B9EC
:10586400C8B988B9C8B988B9C8B988B9C8B9D8B9DC
:10587400C8B988B9C8B988B9C8B988B9C8B9D8B9CC
:10588400C8B988B9C8B988B9C8B988B9C8B9D8B9BC
:10589400C8B988B9C8B988B9C8B988B9C8B9D8B9AC
:1058A400C8B988B9C8B988B9C8B988B9C8B9D8B99C
:1058B400C8B988B9C8B988B9C8B988B9C8B9D8B98C
:1058C400C8B988B9C8B988B9C8B988B9C8B9D8B97C
:1058D400C8B988B9C8B988B9C8B988B9C8B9D8B96C
:1058E400C8B988B9C8B988B9C8B988B9C8B9D8B95C
:1058F400C8B988B9C8B988B9C8B988B9C8B9D8B94C
:10590400C8B988B9C8B988B9C8B988B9C8B9D8B93B
:10591400C8B988B9C8B988B9C8B988B9C8B9D8B92B
:10592400C8B988B9C8B988B9C8B988B9C8B9D8B91B
:10593400C8B988B9C8B988B9C8B988B9C8B9D8B90B
:10594400C8B988B9C8B988B9C8B988B9C8B9D8B9FB
:10595400C8B988B9C8B988B9C8B988B9C8B9D8B9EB
:10596400C8B988B9C8B988B9C8B988B9C8B9D8B9DB
:10597400C8B988B9C8B988B9C8B988B9C8B9D8B9CB
:10598400C8B988B9C8B988B9C8B988B9C8B9D8B9BB
:10599400C8B988B9C8B988B9C8B988B9C8B9D8B9AB
:1059A400C8B988B9C8B988B9C8B988B9C8B9D8B99B
:1059B400C8B988B9C8B988B9C8B988B9C8B9D8B98B
:1059C400C8B988B9C8B988B9C8B988B9C8B9D8B97B
:1059D400C8B988B9C8B988B9C8B988B9C8B9D8B96B
:1059E400C8B988B9C8B988B9C8B988B9C8B9D8B95B
:1059F400C8B988B9C8B988B9C8B988B9C8B9D8B94B
:105A0400C8B988B9C8B988B9C8B988B9C8B9D8B93A
:105A1400C8B988B9C8B988B9C8B988B9C8B9D8B92A
:105A2400C8B988B9C8B988B9C8B988B9C8B9D8B91A
:105A3400C8B988B9C8B988B9C8B988B9C8B9D8B90A
:105A4400C8B988B9C8B988B9C8B988B9C8B9D8B9FA
:105A5400C8B988B9C8B988B9C8B988B9C8B9D8B9EA
:105A6400C8B988B9C8B988B9C8B988B9C8B9D8B9DA
:105A7400C8B988B9C8B988B9C8B988B9C8B9D8B9CA
:105A8400C8B988B9C8B988B9C8B988B9C8B9D8B9BA
:105A9400C8B988B9C8B988B9C8B988B9C8B9D8B9AA
:105AA400C8B988B9C8B988B9C8B988B9C8B9D8B99A
:105AB400C8B988B9C8B988B9C8B988B9C8B9D8B98A
:105AC400C8B988B9C8B988B9C8B988B9C8B9D8B97A
:105AD400C8B988B9C8B988B9C8B988B9C8B9D8B96A
